:100000000C948C000C94B4000C94B4000C94B400C8
:100010000C94B4000C94B4000C94B4000C94B40090
:100020000C94B4000C94B4000C94EA050C940307EF
:100030000C94B4000C9416070C94B4000C94B40007
:100040000C94A0050C94B4000C9462050C943C052F
:100050000C94B4000C94B4000C94B4000C94B40050
:100060000C94B4000C94B40025022B023102370228
:100070003D0243024902B603BD03C403CB03D203CE
:10008000E903D903E903E0034E414E494E4954596F
:10009000494E46CDCCCC3D0AD7233C17B7D1387753
:1000A000CC2B329595E6241FB14F0A000020410069
:1000B00000C84200401C4620BCBE4CCA1B0E5AAEB3
:1000C000C59D740000000800020100000304070041
:1000D0000000000000000000000000250028002BA8
:1000E0000000000000240027002A00040404040487
:1000F00004040402020202020203030303030301D5
:1001000002040810204080010204081020010204AB
:1001100008102000B60E5B0A11241FBECFEFD8E0F6
:10012000DEBFCDBF22E0A8E5B1E001C01D92A33A39
:10013000B207E1F711E0A0E0B1E0E4E1FDE202C0C6
:1001400005900D92A835B107D9F710E0CBE8D0E0C3
:1001500004C02197FE010E945C14CA38D107C9F778
:100160000E94700A0C947D160C9400000895CF92A2
:10017000DF92EF92FF920F931F93CF93DF936C0167
:100180007A018B01C0E0D0E0CE15DF0589F0D801FF
:100190006D918D01D601ED91FC910190F081E02DE2
:1001A000C6010995892B11F47E0102C02196ECCF7E
:1001B000C701DF91CF911F910F91FF90EF90DF90DA
:1001C000CF900895089580E090E00895FC01538D4C
:1001D000448D252F30E0842F90E0821B930B541721
:1001E00010F0CF96089501970895FC01918D828DAE
:1001F000981761F0828DDF01A80FB11D5D968C917B
:10020000928D9F5F9F73928F90E008958FEF9FEF85
:100210000895FC01918D828D981731F0828DE80F41
:10022000F11D858D90E008958FEF9FEF0895FC01FB
:10023000918D228D892F90E0805C9F4F821B9109C8
:100240008F739927089582E991E00E94170121E0B8
:10025000892B09F420E0822F0895FC01848DDF01B1
:10026000A80FB11DA35ABF4F2C91848D90E0019629
:100270008F739927848FA689B7892C93A089B18918
:100280008C9180648C93938D848D981306C0028822
:10029000F389E02D80818F7D80830895EF92FF9216
:1002A0000F931F93CF93DF93EC0181E0888F9B8D99
:1002B0008C8D981305C0E889F989808185FD24C05B
:1002C000F62E0B8D10E00F5F1F4F0F731127E02EDE
:1002D0008C8DE8120CC00FB607FCFACFE889F989BB
:1002E000808185FFF5CFCE010E942D01F1CF8B8D4E
:1002F000FE01E80FF11DE35AFF4FF0820B8FEA89F0
:10030000FB898081806207C0EE89FF896083E8896C
:10031000F98980818064808381E090E0DF91CF91D2
:100320001F910F91FF90EF900895CF93DF93EC0111
:10033000888D8823C9F0EA89FB89808185FD05C005
:10034000A889B9898C9186FD0FC00FB607FCF5CF3F
:10035000808185FFF2CFA889B9898C9185FFEDCF87
:10036000CE010E942D01E7CFDF91CF91089580E06B
:1003700090E0892B29F00E94230181110C94000048
:10038000089590E0FC01ED53FF4F3491FC01E150E2
:10039000FF4F2491FC01E551FF4FE491EE2309F456
:1003A0003BC0332339F1333091F038F43130A9F0C8
:1003B000323001F584B58F7D12C0373091F038307E
:1003C000A1F03430B9F4809180008F7D03C080911A
:1003D00080008F77809380000DC084B58F7784BDB7
:1003E00009C08091B0008F7703C08091B0008F7DED
:1003F0008093B000F0E0EE0FFF1FE952FF4FA59190
:10040000B4918FB7F894EC91611103C020952E231D
:1004100001C02E2B2C938FBF0895CF93DF9347708D
:10042000552766277727FA013197EC01A881B98112
:10043000E730F10520F4EC5CFF4F0C945C1414964B
:10044000ED91FC91159761E029C01496ED91FC9116
:10045000159765E023C01496ED91FC91159764E023
:100460001DC01496ED91FC91159766E017C0149687
:10047000ED91FC91159762E011C01496ED91FC91FD
:1004800015976AE00BC01496ED91FC91159768E002
:1004900005C01496ED91FC91159769E0DF91CF911D
:1004A0000994CF93DF93EC01CB01BA0126E030E051
:1004B00040E050E00E943D146230710581059105D5
:1004C00059F18CF46115710581059105F1F06130E8
:1004D000710581059105C1F5E881F9810480F581F7
:1004E000E02D65E02DC0643071058105910511F1A5
:1004F000D4F0653071058105910531F5E881F98108
:100500000480F581E02D66E01BC0E881F98104805C
:10051000F581E02D64E014C0E881F9810480F58163
:10052000E02D61E00DC0E881F9810480F581E02DC6
:1005300063E006C0E881F9810480F581E02D62E086
:10054000CE01DF91CF910994DF91CF91089543704F
:10055000552766277727DC01ED91FC910480F58112
:10056000E02D423051056105710571F043305105B0
:100570006105710559F0413051056105710511F0B2
:1005800065E005C066E003C06AE001C069E0099467
:10059000CF93DF93EC01CB01BA0123E030E040E0E0
:1005A00050E00E943D14613071058105910581F094
:1005B000623071058105910591F0672B682B692BDD
:1005C000C1F4E881F9810480F581E02D64E00DC07B
:1005D000E881F9810480F581E02D61E006C0E881C1
:1005E000F9810480F581E02D62E0CE01DF91CF91A9
:1005F0000994DF91CF910895437055276627772797
:10060000DC01ED91FC910480F581E02D4230510533
:100610006105710571F0433051056105710559F0AF
:10062000413051056105710511F062E005C063E0DC
:1006300003C061E001C060E00994CF93DF93EC0157
:10064000E881F9810480F581E02D8A81811102C061
:1006500060E001C062E0CE010995E881F981048083
:10066000F581E02D8A81811102C061E001C063E063
:10067000CE0109958CA59DA58230910538F0880F93
:10068000991F880F991F05970197F1F7E881F98164
:100690000480F581E02D8A81811102C060E001C0F3
:1006A00062E0CE01DF91CF910994CF93DF93EC010B
:1006B00020E030E0A9016C897D898E899F890E94A4
:1006C000B61318161CF4E8A9F9A902C0EAA9FBA9F7
:1006D000DF91CF910994CF92DF92EF92FF920F9327
:1006E0001F93CF93DF93FC012381243041F0283006
:1006F00031F0233031F0263021F012E003C014E055
:1007000001C013E0EC012896E12CF12CC62ED12C6F
:1007100001E0C6010E2C02C0959587950A94E2F778
:10072000688180FD6027FE01349780810E94C101AD
:10073000FFEFEF1AFF0A2196E11658F3DF91CF91F0
:100740001F910F91FF90EF90DF90CF9008950F933E
:100750001F93DC011396EC910E2F10E00930110568
:10076000C0F5F801E55CFF4F0C945C14DC01ED91E1
:10077000FC910084F185E02D29C0DC01ED91FC9114
:100780000284F385E02D22C0DC01ED91FC9104840C
:10079000F585E02D1BC0DC01ED91FC910684F78509
:1007A000E02D14C0DC01ED91FC910088F189E02D71
:1007B0000DC0DC01ED91FC910288F389E02D06C0AB
:1007C000DC01ED91FC910488F589E02D1F910F91DA
:1007D00009941F910F910895CF93DF93FC0123811A
:1007E000222329F1EC0184810E941E098D810E943F
:1007F0001E098B81843011F0883029F48E810E948B
:100800001E098F8105C0833011F0863019F48E8166
:100810000E941E098FA58F3F51F00E941E096EA5F0
:1008200081E068278FA5DF91CF910C94C101DF9102
:10083000CF910895CF93DF93FC0123812223A1F070
:10084000EC010190F081E02D0480F581E02D60E065
:1008500009958FA58F3F41F00E941E096EA58FA5B7
:10086000DF91CF910C94C101DF91CF9108950F9347
:100870001F93CF93DF938C01EB01FC018081918169
:100880000097B1F0688179816115710579F0428135
:1008900053812C813D814217530740F00E94761608
:1008A0008C819D81F8019583848313C00E94F71485
:1008B00088819981F801918380838A819B819383C8
:1008C00082838C819D8195838483198218821B8207
:1008D0001A821D821C82DF91CF911F910F91089582
:1008E0000F931F93CF93DF93EC0188819981009739
:1008F00029F02A813B812617370788F48B016F5F27
:100900007F4F0E948F15009761F0998388831B8326
:100910000A832C813D81232B11F4FC01108281E09C
:1009200001C080E0DF91CF911F910F910895EF9268
:10093000FF920F931F93CF93DF93EC017B018A010A
:10094000BA010E9470042881398181110DC02115DE
:10095000310519F0C9010E94F714198218821D820D
:100960001C821B821A8206C01D830C83B701C90139
:100970000E947616CE01DF91CF911F910F91FF90CB
:10098000EF900895FC011182108213821282158269
:1009900014826115710551F0FB0101900020E9F707
:1009A0003197AF01461B570B0C9497040895BF92E3
:1009B000CF92DF92EF92FF920F931F93CF93DF932B
:1009C0007C016B01EA0189012417350720F48D2F82
:1009D000E901042F182F60E471E0C7010E94C204EE
:1009E000D60114968D919C911597C817D907C8F513
:1009F0008017910708F48C01D601ED91FC911197B5
:100A0000E00FF11FB08010824D915C91BA016C0F24
:100A10007D1F6115710561F0FB0101900020E9F770
:100A20003197AF01461B570BC7010E94970413C0B3
:100A3000F70180819181009711F00E94F714D7018E
:100A400011961C921E9215961C921E921497139644
:100A50001C921E921297D601ED91FC91E00FF11FAE
:100A6000B082C701DF91CF911F910F91FF90EF905E
:100A7000DF90CF90BF9008951F920F920FB60F9204
:100A800011242F933F934F935F936F937F938F9393
:100A90009F93AF93BF93EF93FF9382E991E00E94FE
:100AA0002D01FF91EF91BF91AF919F918F917F9118
:100AB0006F915F914F913F912F910F900FBE0F90CB
:100AC0001F9018951F920F920FB60F9211242F931B
:100AD0008F939F93EF93FF93E091A201F091A30175
:100AE0008081E091A801F091A90182FD12C090815E
:100AF0008091AB018F5F8F732091AC01821751F011
:100B0000E091AB01F0E0EE56FE4F958F8093AB0184
:100B100001C08081FF91EF919F918F912F910F9054
:100B20000FBE0F901F9018952FB7F8946091610138
:100B30007091620180916301909164012FBF0895CB
:100B40001F920F920FB60F9211242F933F938F9302
:100B50009F93AF93BF938091610190916201A091A7
:100B60006301B09164013091600123E0230F2D37C0
:100B700020F40196A11DB11D05C026E8230F0296A1
:100B8000A11DB11D209360018093610190936201CA
:100B9000A0936301B093640180918E0190918F01C5
:100BA000A0919001B09191010196A11DB11D80937A
:100BB0008E0190938F01A0939001B0939101BF910A
:100BC000AF919F918F913F912F910F900FBE0F90FA
:100BD0001F9018951F920F920FB60F921124CF926B
:100BE000DF92EF92FF920F931F932F933F934F93B8
:100BF0005F936F937F938F939F93AF93BF93EF9385
:100C0000FF932091860030918700C90130918100C7
:100C100020E4232720938100B59A2091650130912B
:100C20006601D901B09B05C08F3F0FE7900708F41C
:100C3000C1C02091810026FFADC020916701309195
:100C400068012115310509F44FC02130310509F043
:100C500054C000915C0110915D0120915E013091C2
:100C60005F01409176015091770160917801709118
:100C70007901480F591F6A1F7B1F401B510B620BE4
:100C8000730B4093760150937701609378017093D2
:100C90007901C0906901D0906A01E0906B01F090F9
:100CA0006C0140916E0150916F01609170017091E3
:100CB00071018C019D01041B150B260B370BC9011B
:100CC000B8010E942E119B01AC01C701B6010E9420
:100CD0000E130E94871360935801709359018093FB
:100CE0005A0190935B014CC080936E0190936F0109
:100CF000A0937001B093710143C000915C01109109
:100D00005D0120915E0130915F014091760150912B
:100D100077016091780170917901480F591F6A1F1E
:100D20007B1F401B510B620B730B4093760150935A
:100D30007701609378017093790120916701309178
:100D4000680127703327232BD9F400916E0110918D
:100D50006F012091700130917101409158015091C3
:100D6000590160915A0170915B016C017D01C01ABB
:100D7000D10AE20AF30AC416D506E606F706E8F435
:100D8000809167019091680101969093680180932A
:100D9000670122C09C01205C334630938900209378
:100DA000880080935C0190935D01A0935E01B093F5
:100DB0005F0112C0D90111963CCF809372019093CC
:100DC0007301A0937401B093750110926F0083E2D8
:100DD00086BB81E080936D01FF91EF91BF91AF9150
:100DE0009F918F917F916F915F914F913F912F9143
:100DF0001F910F91FF90EF90DF90CF900F900FBE5B
:100E00000F901F9018951F920F920FB60F921124FA
:100E10008F9310926F0083E286BB82E080936D0116
:100E20008F910F900FBE0F901F9018951F920F92E9
:100E30000FB60F9211248F939F938091650190912B
:100E40006601019690936601809365019F918F9151
:100E50000F900FBE0F901F9018952F923F924F92B8
:100E60005F926F927F928F929F92AF92BF92CF923A
:100E7000DF92EF92FF920F931F93CF93DF9300D0F7
:100E800000D0CDB7DEB71C01FC01C088D188E28854
:100E9000F38884859585A685B785C81AD90AEA0A94
:100EA000FB0A64897589868997899B01AC010E9438
:100EB0008F114B015C01F101648D758D868D978DCD
:100EC0009B01AC010E94A2129B01AC01C501B401BF
:100ED0000E940E130E948013C114D104E104F10496
:100EE000A1F462307105810591050CF07CC0F1011F
:100EF00014A215A216A217A2148A158A168A178A96
:100F000014AA15AA16AA17AAFFC0F10104A915A9C7
:100F100026A937A91C141D041E041F0404F510166D
:100F20001106120613064CF46C157D058E059F05FF
:100F30005CF52281211157C027C00115110521053B
:100F4000310509F450C06C157D058E059F050CF028
:100F50004AC0F1018281882309F445C039C01016C6
:100F6000110612061306FCF40027112798010C192C
:100F70001D092E093F09601771078207930724F4A2
:100F8000F1012281222379F19B01AC018827992765
:100F9000DC01821B930BA40BB50BF10184AB95AB69
:100FA000A6ABB7AB20C00115110521053105D9F05D
:100FB0008824992454018C189D08AE08BF08681530
:100FC00079058A059B057CF4F101828181110BC0B2
:100FD00030952095109501951F4F2F4F3F4F04AB33
:100FE00015AB26AB37ABF10184A895A8A6A8B7A886
:100FF00081149104A104B10491F480AD91ADA2AD2E
:10100000B3AD84AF95AFA6AFB7AF81E01C141D049C
:101010001E041F040CF080E0F101828341C0F10145
:10102000C4ACD5ACE6ACF7ACA7019601C701B601DC
:101030000E94A2122B013C01C501B4010E94301193
:1010400020E030E040E850E40E948F1120E030E0E2
:1010500040E85FE30E94A2129B01AC01C301B20110
:101060000E940E139B01AC01C701B6010E94A112A0
:101070007B018C01F101E05CFF4F60807180C280D8
:10108000D3809301A6010E94B613181614F07301C1
:101090008601A701B801F10144AF55AF66AF77AF44
:1010A000FFEF8F1A9F0AAF0ABF0AF10184AA95AA1F
:1010B000A6AAB7AA24AD35AD46AD57ADCA01B90150
:1010C00029833A834B835C830E948713F10164A3D5
:1010D00075A386A397A329813A814B815C8160E047
:1010E00074E284E799E40E940E13F101648B758B1E
:1010F000868B978B2281211107C0DC01CB01B05870
:10110000848B958BA68BB78B0F900F900F900F90C1
:10111000DF91CF911F910F91FF90EF90DF90CF90D3
:10112000BF90AF909F908F907F906F905F904F9007
:101130003F902F9008954F925F926F927F928F927F
:101140009F92AF92BF92CF92DF92EF92FF92CF9396
:10115000DF93EC016A017B0120E030E0A901C701C7
:10116000B6010E94291187FF04C0F7FAF094F7F83E
:10117000F0948C8C9D8CAE8CBF8CA7019601C50120
:10118000B4010E942911882309F449C06CA97DA9E2
:101190008EA99FA90E9430112B013C01A701960145
:1011A000C501B4010E940E139B01AC01C301B20141
:1011B0000E948F110E9480136CAB7DAB8EAB9FABF6
:1011C000A701960160E070E080E090E40E940E13B9
:1011D0000E94C11326E53EE04DE25FE30E948F11BD
:1011E00020E034E244E759E40E948F1168AF79AF00
:1011F0008AAF9BAFCC8EDD8EEE8EFF8ECE01DF915F
:10120000CF91FF90EF90DF90CF90BF90AF909F90E5
:101210008F907F906F905F904F900C942D07DF918F
:10122000CF91FF90EF90DF90CF90BF90AF909F90C5
:101230008F907F906F905F904F90089590E0FC01A9
:10124000E150FF4F2491FC01E551FF4F8491882329
:1012500099F090E0880F991FFC01EF51FF4FA59185
:10126000B491FC01E952FF4F859194918FB7F894A6
:10127000EC91E22BEC938FBF0895CF92DF92EF9227
:10128000FF9280917D0290917E02A0917F02B091A9
:101290008002892B8A2B8B2B11F480E06EC03FB724
:1012A000F89480918E0190918F01A0919001B0915E
:1012B000910126B5A89B05C02F3F19F00196A11DED
:1012C000B11D3FBFCC24D82EE92EFA2EC20ED11C60
:1012D000E11CF11C42E0CC0CDD1CEE1CFF1C4A950D
:1012E000D1F78091810290918202A0918302B09106
:1012F0008402B701A601481B590B6A0B7B0B809136
:101300007D0290917E02A0917F02B09180024817E9
:1013100059076A077B0708F4C0CF20915B028091D0
:10132000650290916602A0916702B0916802222343
:1013300021F00196A11DB11D03C00197A109B109BA
:101340008093650290936602A0936702B09368024F
:101350004091650250916602609167027091680247
:1013600089E592E00E94A703C0928102D092820296
:10137000E0928302F092840281E0FF90EF90DF9090
:10138000CF900895009769F0FC0101900020E9F7E3
:101390003197AF01481B590BBC0182E991E00C94D5
:1013A000B70080E090E00895809135029091360278
:1013B000009711F00C94A70F60E070E0CB01089546
:1013C0000F931F930E94940560939A0170939B0161
:1013D00080939C0190939D01E0919201F091930183
:1013E0000284F385E02D82E991E0099597FF1FC003
:1013F0000E94940500919A0110919B0120919C01FB
:1014000030919D01DC01CB01801B910BA20BB30B32
:1014100000919601109197012091980130919901C6
:1014200080179107A207B307B8F28FEF9FEF1F91C4
:101430000F9108958F929F92AF92BF920F931F9337
:10144000CF93DF93CDB7DEB7A1970FB6F894DEBF89
:101450000FBECDBF19A2423008F44AE08E010F5DE5
:101460001F4F842E912CA12CB12CA50194010E9418
:101470001B14E62FB901CA0101501109EA3014F416
:10148000E05D01C0E95CD801EC93232B242B252BD4
:1014900061F7C8010E94C209A1960FB6F894DEBF99
:1014A0000FBECDBFDF91CF911F910F91BF90AF9035
:1014B0009F908F900895CF93DF93C3E5D2E0269756
:1014C000888199810E94F71482E0CF32D807B9F75A
:1014D0008091530290915402DF91CF910C94F714B4
:1014E000CF93DF93CDB7DEB72E970FB6F894DEBF5C
:1014F0000FBECDBF789484B5826084BD84B5816011
:1015000084BD85B5826085BD85B5816085BD8091CE
:101510006E00816080936E00109281008091810046
:10152000826080938100809181008160809381003E
:10153000809180008160809380008091B100846000
:101540008093B1008091B00081608093B000809161
:101550007A00846080937A0080917A008260809320
:101560007A0080917A00816080937A0080917A007D
:10157000806880937A001092C100E091A201F091FE
:10158000A30182E08083E0919E01F0919F0110828F
:10159000E091A001F091A10180E180831092AA0165
:1015A000E091A601F091A70186E08083E091A4017B
:1015B000F091A501808180618083E091A401F09188
:1015C000A501808188608083E091A401F091A5014C
:1015D000808180688083E091A401F091A5018081E1
:1015E0008F7D80838E010F5F1F4F96E0792E6624DA
:1015F00063940E94940560938A0170938B01809399
:101600008C0190938D01C0908601D0908701E0906D
:101610008801F0908901DC01CB018C199D09AE098C
:10162000BF09883E9340A105B1050CF4D4C0C09019
:101630008201D0908301E0908401F090850120E048
:1016400030E0A901C701B6010E942911882309F4DD
:10165000C2C0A7019601C701B6010E9401148823E8
:1016600019F082E391E01AC046015701E894B7F8F7
:101670002FEF3FEF4FE75FE7C501B4010E94011470
:1016800081110FC02FEF3FEF4FE75FE7C501B401B6
:101690000E94291118162CF486E391E00E94C209D9
:1016A00082C02FEF3FEF4FE75FE4C701B6010E9412
:1016B000B61318161CF48AE391E0F0CF2FEF3FEF3A
:1016C0004FE75FECC701B6010E94291187FDF3CFF8
:1016D00020E030E0A901C701B6010E94291187FF6F
:1016E0000FC0E0919201F09193010190F081E02D03
:1016F0006DE282E991E00995F7FAF094F7F8F09439
:101700002AE037ED43EA5BE3C701B6010E94A2126B
:101710004B015C010E9487136B017C010E942E111A
:101720009B01AC01C501B4010E94A1124B015C01F7
:101730004AE0C701B6010E941A0AE0919201F091B5
:1017400093010190F081E02D6EE282E991E009952C
:1017500020E030E040E251E4C501B4010E948F1165
:101760006B017C010E9487134B01A12CB12C4AE034
:10177000C501B4010E941A0AC501B4010E942E11CC
:101780009B01AC01C701B6010E94A11220E030E02C
:1017900040E251E40E948F110E94871380E090E0A4
:1017A0004AE00E941A0A8EE391E00E94C209109258
:1017B00082011092830110928401109285010E948F
:1017C0003D090E9494056093860170938701809380
:1017D00088019093890180918A0190918B01A09159
:1017E0008C01B0918D0140917E0150917F016091FB
:1017F000800170918101841B950BA60BB70B843F70
:101800009140A105B1050CF4A9C08AE899EAA6ECBB
:10181000BFE48093690190936A01A0936B01B09338
:101820006C0110926D011092680110926701109284
:10183000760110927701109278011092790110923E
:101840006601109265011092800010928100109242
:10185000850010928400A0E4BCE9B0938900A093B5
:101860008800B1E4B093810023E226BB20936F008F
:1018700080916D01813081F060F0823009F062C0AA
:1018800081E491E00E94C2098EE391E00E94C209C6
:1018900057C00E943D09ECCF6091760170917701AD
:1018A0008091780190917901C0907201D09073017C
:1018B000E0907401F090750120906E0130906F01FE
:1018C00040907001509071010E942E114B015C01FB
:1018D000C701B60162197309840995090E942E1186
:1018E0009B01AC01C501B4010E940E136B017C0188
:1018F0009B01AC010E948F112DE33AE047EB5FEBB7
:101900000E948F114B015C012CE53FE846E553E452
:10191000C701B6010E948F119B01AC01C501B40142
:101920000E94A21223E333E349E852E40E94A11289
:101930006093820170938301809384019093850169
:101940000E943D090E943D090E94940560937E011A
:1019500070937F01809380019093810182E991E0EF
:101960000E941701181619060CF0FBC160E471E023
:10197000C8010E94C2040E94E00997FD1EC08A307F
:101980009105D9F08F831886ED80FE808FEFE81ADD
:10199000F80AB701C8010E947004882361F3298105
:1019A0003A818D819E81BE01695F7F4F820F931FB7
:1019B0000E947616FE82ED82DECFB80183E592E0CA
:1019C0000E94370489819A810E94F71418861F8229
:1019D0001A8619861C861B866091530270915402E8
:1019E0006115710541F04091570250915802CE01A6
:1019F00007960E94970440E050E0E12CF12CAB8464
:101A0000BC844A155B0598F48F8098846AE370E083
:101A1000C401840F951F4D875E870E9462164D8515
:101A20005E85009721F06C01C818D90803C0CC244A
:101A3000CA94DC2CCA0101968C159D051CF59601F3
:101A4000BE01695F7F4FC8010E94D7047E9CC00120
:101A50007F9C900D1124815D9D4F8017910719F097
:101A6000B8010E94370489819A810E94F7149FEF80
:101A7000E91AF90AA6E0EA16F1042CF5A6014F5F6F
:101A80005F4FBDCFD7FEBBCFB6E0EB16F104DCF461
:101A90009501BE01695F7F4FC8010E94D7047E9CFB
:101AA000C0017F9C900D1124815D9D4F801791078F
:101AB00019F0B8010E94370489819A810E94F714B5
:101AC0002FEFE21AF20AF0927D01E0927C018F8101
:101AD00098850E94F7148091330290913402892BEB
:101AE00009F484C06BE471E080912F029091300280
:101AF0000E946D16892B09F079C080917B018823A3
:101B000009F474C080917A01882309F46FC00E949F
:101B1000D4094B015C0120916D0230916E0240911D
:101B20006F02509170020E942911882309F45EC04F
:101B3000C0907102D0907202E0907302F090740233
:101B40001601270157FA509457F85094A2019101B9
:101B5000B401C5010E94291187FD0BC0A7019601A0
:101B6000B401C5010E94B61318162CF0640175016A
:101B700002C07201610120E030E0A901C701B60195
:101B80000E942911811109C010927D0210927E02DB
:101B900010927F021092800221C0A701960160E09E
:101BA00074E284E799E40E940E139F770E948713E2
:101BB00060937D0270937E0280937F0290938002F7
:101BC000BB24B39420E030E0A901C701B6010E9414
:101BD000B61318160CF0B12CB0925B02C0926D02D5
:101BE000D0926E02E0926F02F09270028091330206
:101BF00090913402892B09F488C06FE471E08091E0
:101C00002F02909130020E946D16892B09F07DC041
:101C10000E94D40920E030E0A9010E94B6131816F2
:101C20000CF073C00E94D4096B017C0120E030E00D
:101C3000A9010E94291187FF04C0F7FAF094F7F870
:101C4000F094A701960160917102709172028091E7
:101C50007302909174020E942911882309F453C0E1
:101C6000C0927102D0927202E0927302F0927402FA
:101C7000A701960160E074E284E799E40E940E13E4
:101C80006093990270939A0280939B0290939C02B6
:101C900080918D0290918E02A0918F02B09190025E
:101CA000181619061A061B0674F560916D027091DC
:101CB0006E0280916F02909170029B01AC010E94B4
:101CC0008F116B017C016091750270917602809199
:101CD0007702909178029B01AC010E94A2129B01B5
:101CE000AC01C701B6010E940E130E9480136093DD
:101CF0008D0270938E0280938F029093900289E5FB
:101D000092E00E942D0760927A01809133029091B7
:101D10003402892B31F163E571E080912F029091BB
:101D200030020E946D16892BE1F40E94D40920E054
:101D300030E0A9010E94B61318169CF40E94D40941
:101D40006B017C0120E030E0A9010E942911882369
:101D500031F0B701A60189E592E00E949B086092EC
:101D60007B010E943D090E94B70143CCCF93DF93D2
:101D7000109295011092940188EE93E0A0E0B0E0FB
:101D80008093960190939701A0939801B093990145
:101D90008AE091E0909393018093920185EC90E02A
:101DA00090939F0180939E0184EC90E09093A10119
:101DB0008093A00180EC90E09093A3018093A20116
:101DC00081EC90E09093A5018093A40182EC90E0D7
:101DD0009093A7018093A60186EC90E09093A901CF
:101DE0008093A8011092AB011092AC011092AD014A
:101DF0001092AE018CE191E090935A0280935902C7
:101E000081E080935C02109265021092660210924B
:101E10006702109268021092690210926A02109290
:101E20006B0210926C0210926D0210926E02109270
:101E30006F021092700280E090E0A0E8BFE3809310
:101E4000710290937202A0937302B0937402109285
:101E500075021092760210927702109278028093A7
:101E6000790290937A02A0937B02B0937C02109245
:101E70007D0210927E0210927F021092800221E079
:101E800030E030938602209385022FEF2093880262
:101E900010928102109282021092830210928402A8
:101EA0002BE020935D022CE020935E0224E020933F
:101EB0005F0225E02093600210928D0210928E0244
:101EC00010928F0210929002109291021092920240
:101ED0001092930210929402109295021092960220
:101EE00010929702109298028093990290939A020E
:101EF000A0939B02B0939C0210925B02109261022D
:101F000010926202109263021092640289E592E0DC
:101F10000E94EC0340E050E060E87FE389E592E056
:101F20000E949B0860E471E083E592E00E94C20495
:101F3000CFE2D2E060E471E0CE010E94C2042696B6
:101F400082E0C335D807B1F7DF91CF9108956627B6
:101F500077270C94AB0FA0E0B0E0E1EBFFE00C942E
:101F60005F12EC017B016115710519F0DB018D93A6
:101F70009C938E010F5F1F4F7880872D90E00E9409
:101F80000811892B11F0E801F4CFBDE27B1205C0E6
:101F90000F5F1F4F7980C1E008C0EBE27E1204C0E2
:101FA0008E010E5F1F4F7980C0E06801F1E0CF1A0B
:101FB000D10843E050E060E970E0C6010E941111D1
:101FC000892BF1F4680122E0C20ED11C45E050E0FB
:101FD0006BE870E0C6010E941111892B21F46801A1
:101FE00087E0C80ED11CE114F10419F0D701CD929D
:101FF000DC92C111FFC060E070E080E89FE703C1A0
:1020000043E050E068E870E0C6010E941111892B9E
:1020100051F4E114F10409F4F2C00E5F1F4FF7010F
:1020200011830083ECC0680160E070E0CB0100E048
:1020300010E0F601D0EDD70DDA3058F52C2F2260E4
:10204000622E2C2F2870C2FF05C0211128C00F5FFF
:102050001F4F25C0222311F001501109A5E0B0E067
:102060009B01AC010E9450124B015C01880C991C31
:10207000AA1CBB1CC501B4016D0F711D811D911DF2
:102080006839A9E97A078A07A9E19A0740F0C6608A
:1020900005C0DE3F51F4C3FD44C0C8606C2EBFEFE5
:1020A000CB1ADB0A7080C62DC4CF2D2F2F7D253192
:1020B000C1F540814D3211F4C06106C04B3221F0B0
:1020C000319621E030E006C03296D60111964C914F
:1020D00022E030E0A0EDA40FAA3018F0E21BF30BD1
:1020E00020C040E050E04038BCE05B075CF49A015F
:1020F000220F331F220F331F420F531F440F551F50
:102100004A0F511D3196DF0111972C91A0EDA20FBE
:10211000AA3048F3C4FF03C0519541955109040FFB
:10212000151FC1FF07C0E114F10421F03197D70159
:10213000ED93FC930E942E11C370C33019F06B0114
:102140007C0106C06B017C01F7FAF094F7F8F0947B
:1021500020E030E0A901C701B6010E9429118823BF
:1021600009F445C017FF06C0119501951109C7EA8A
:10217000D0E002C0CFEBD0E05E01B8E1AB1AB1080D
:102180004601BE2DAF2D90E2E92EF12C0E151F0554
:1021900084F0FE012591359145915491B4018B2F26
:1021A0009A2F0E948F114B01B82FA92F0E191F09CA
:1021B000EDCF2497F594E794CA15DB0539F7640150
:1021C000EB2EFA2E8E2D880F8F2D881F8F3F49F012
:1021D00020E030E0A901C701B6010E942911811158
:1021E00006C082E290E090939E0280939D02C70118
:1021F000B60109C060E070E080E89FEF04C060E0D5
:1022000070E080EC9FE7CDB7DEB7EEE00C947B1278
:1022100091110C94FC11803219F089508550C8F747
:102220000895FB01DC014150504088F08D918134CC
:102230001CF08B350CF4805E659161341CF06B35BD
:102240000CF4605E861B611171F3990B0895881B75
:10225000FCCF0E946B1108F481E00895E89409C056
:1022600097FB3EF490958095709561957F4F8F4FC9
:102270009F4F9923A9F0F92F96E9BB279395F695DF
:10228000879577956795B795F111F8CFFAF4BB0F5D
:1022900011F460FF1BC06F5F7F4F8F4F9F4F16C0C1
:1022A000882311F096E911C0772321F09EE8872F4B
:1022B000762F05C0662371F096E8862F70E060E007
:1022C0002AF09A95660F771F881FDAF7880F969580
:1022D000879597F90895990F0008550FAA0BE0E824
:1022E000FEEF16161706E807F907C0F012161306D8
:1022F000E407F50798F0621B730B840B950B39F418
:102300000A2661F0232B242B252B21F408950A267D
:1023100009F4A140A6958FEF811D811D08950E94AB
:10232000A2110C9416120E94081238F00E940F128B
:1023300020F0952311F00C94FF110C940512112438
:102340000C944A120E94271270F3959FC1F3950FC7
:1023500050E0551F629FF001729FBB27F00DB11D29
:10236000639FAA27F00DB11DAA1F649F6627B00DB9
:10237000A11D661F829F2227B00DA11D621F739FA2
:10238000B00DA11D621F839FA00D611D221F749FB0
:102390003327A00D611D231F849F600D211D822FF7
:1023A000762F6A2F11249F5750409AF0F1F088231E
:1023B0004AF0EE0FFF1FBB1F661F771F881F91504B
:1023C0005040A9F79E3F510580F00C94FF110C94EA
:1023D0004A125F3FE4F3983ED4F38695779567956C
:1023E000B795F795E7959F5FC1F7FE2B880F911D75
:1023F0009695879597F9089599278827089597F9CD
:102400009F6780E870E060E008959FEF80EC08959A
:1024100000240A94161617061806090608950024C3
:102420000A9412161306140605060895092E03943D
:10243000000C11F4882352F0BB0F40F4BF2B11F4B1
:1024400060FF04C06F5F7F4F8F4F9F4F089557FD10
:102450009058440F551F59F05F3F71F04795880F12
:1024600097FB991F61F09F3F79F0879508951216A9
:1024700013061406551FF2CF4695F1DF08C0161655
:1024800017061806991FF1CF869571056105089406
:102490000895E894BB2766277727CB0197F908951D
:1024A0000E949212A59F900DB49F900DA49F800D45
:1024B000911D112408952F923F924F925F926F9237
:1024C0007F928F929F92AF92BF92CF92DF92EF92C4
:1024D000FF920F931F93CF93DF93CDB7DEB7CA1B45
:1024E000DB0B0FB6F894DEBF0FBECDBF09942A8870
:1024F000398848885F846E847D848C849B84AA8418
:10250000B984C884DF80EE80FD800C811B81AA81A4
:10251000B981CE0FD11D0FB6F894DEBF0FBECDBF6F
:10252000ED010895A29FB001B39FC001A39F700D5C
:10253000811D1124911DB29F700D811D1124911DCB
:1025400008955058BB27AA270E94B9120C9416125E
:102550000E94081238F00E940F1220F039F49F3FB9
:1025600019F426F40C9405120EF4E095E7FB0C9494
:10257000FF11E92F0E94271258F3BA176207730759
:102580008407950720F079F4A6F50C9449120EF40F
:10259000E0950B2EBA2FA02D0B01B90190010C0173
:1025A000CA01A0011124FF27591B99F0593F50F48B
:1025B000503E68F11A16F040A22F232F342F4427E3
:1025C000585FF3CF469537952795A795F0405395DB
:1025D000C9F77EF41F16BA0B620B730B840BBAF0AB
:1025E0009150A1F0FF0FBB1F661F771F881FC2F716
:1025F0000EC0BA0F621F731F841F48F4879577952A
:102600006795B795F7959E3F08F0B0CF9395880FE3
:1026100008F09927EE0F9795879508950E94221349
:102620000C9416120E940F1258F00E94081240F0EB
:1026300029F45F3F29F00C94FF1151110C944A12B8
:102640000C9405120E94271268F39923B1F35523C5
:1026500091F3951B550BBB27AA27621773078407B5
:1026600038F09F5F5F4F220F331F441FAA1FA9F34B
:1026700035D00E2E3AF0E0E832D091505040E69539
:10268000001CCAF72BD0FE2F29D0660F771F881F9A
:10269000BB1F261737074807AB07B0E809F0BB0B8D
:1026A000802DBF01FF2793585F4F3AF09E3F5105A1
:1026B00078F00C94FF110C944A125F3FE4F3983EBB
:1026C000D4F3869577956795B795F7959F5FC9F78A
:1026D000880F911D9695879597F90895E1E0660F0B
:1026E000771F881FBB1F621773078407BA0720F084
:1026F000621B730B840BBA0BEE1F88F7E0950895ED
:102700000E9487136894B1110C944A1208950E9494
:102710002F1288F09F5798F0B92F9927B751B0F032
:10272000E1F0660F771F881F991F1AF0BA95C9F755
:1027300014C0B13091F00E944912B1E008950C9498
:102740004912672F782F8827B85F39F0B93FCCF34B
:10275000869577956795B395D9F73EF490958095D2
:10276000709561957F4F8F4F9F4F08950E946B1119
:1027700008F48FEF089519F416F40C9405120C94D4
:1027800006140E942F12B8F39923C9F3B6F39F578A
:10279000550B87FF0E9414140024A0E640EA900124
:1027A00080585695979528F4805C660F771F881F90
:1027B00020F026173707480730F4621B730B840B91
:1027C000202931294A2BA6951794079420253125D5
:1027D0004A2758F7660F771F881F20F026173707FC
:1027E000480730F4620B730B840B200D311D411D23
:1027F000A09581F7B901842F9158880F96958795F8
:1028000008950E946B11880B990B08959F3F31F03A
:10281000915020F4879577956795B795880F911D0E
:102820009695879597F9089591505040660F771FB8
:10283000881FD2F70895A1E21A2EAA1BBB1BFD0127
:102840000DC0AA1FBB1FEE1FFF1FA217B307E4078F
:10285000F50720F0A21BB30BE40BF50B661F771FE7
:10286000881F991F1A9469F76095709580959095C7
:102870009B01AC01BD01CF010895052E97FB1EF40D
:1028800000940E94541457FD07D00E941B1407FCAB
:1028900003D04EF40C9454145095409530952195E6
:1028A0003F4F4F4F5F4F089590958095709561957C
:1028B0007F4F8F4F9F4F0895EE0FFF1F0590F491AC
:1028C000E02D0994CF93DF938230910510F482E0DC
:1028D00090E0E091A102F091A20220E030E0C0E09F
:1028E000D0E0309711F14081518148175907C0F06D
:1028F0004817590761F482819381209719F09B83CF
:102900008A832BC09093A2028093A10226C0211536
:10291000310519F04217530718F49A01BE01DF017F
:10292000EF010280F381E02DDCCF2115310509F1A3
:10293000281B390B2430310590F412968D919C910F
:1029400013976115710521F0FB019383828304C005
:102950009093A2028093A102FD01329644C0FD0132
:10296000E20FF31F81939193225031092D933C93F1
:102970003AC020919F023091A002232B41F4209174
:102980000201309103013093A00220939F02209115
:102990000001309101012115310541F42DB73EB7F9
:1029A0004091040150910501241B350BE0919F02D9
:1029B000F091A002E217F307A0F42E1B3F0B28179B
:1029C000390778F0AC014E5F5F4F2417350748F0A8
:1029D0004E0F5F1F5093A00240939F0281939193EB
:1029E00002C0E0E0F0E0CF01DF91CF9108950F93B6
:1029F0001F93CF93DF93009709F48CC0FC013297AB
:102A0000138212820091A1021091A20201151105F8
:102A100081F420813181820F931F20919F02309198
:102A2000A0022817390779F5F093A002E0939F02DE
:102A300071C0D80140E050E0AE17BF0750F41296C5
:102A40002D913C911397AD012115310509F1D90163
:102A5000F3CF9D01DA013383228360817181860F78
:102A6000971F8217930769F4EC0128813981260F9B
:102A7000371F2E5F3F4F318320838A819B81938351
:102A80008283452B29F4F093A202E093A10242C075
:102A90001396FC93EE931297ED01499159919E0183
:102AA000240F351FE217F30771F480819181840FA1
:102AB000951F029611969C938E9382819381139613
:102AC0009C938E931297E0E0F0E0D80112968D91DE
:102AD0009C911397009719F0F8018C01F6CF8D9116
:102AE0009C9198012E5F3F4F820F931F20919F0270
:102AF0003091A0022817390769F4309729F4109211
:102B0000A2021092A10202C0138212821093A002AC
:102B100000939F02DF91CF911F910F910895A0E044
:102B2000B0E0E5E9F5E10C945F12EC01009721F4C7
:102B3000CB010E946214B8C0FC01E60FF71F9C0194
:102B400022503109E217F30708F4ACC0D9010D9106
:102B50001C91119706171707B0F00530110508F4FE
:102B60009FC0C80104978617970708F499C00250C0
:102B70001109061B170B019311936D937C93CF01E1
:102B80000E94F7148DC05B01A01AB10A4C01800E9F
:102B9000911EA091A102B091A20240E050E0E12C70
:102BA000F12C109709F44AC0A815B905D1F56D901C
:102BB0007C901197630182E0C80ED11CCA14DB041B
:102BC00080F1A3014A195B096A0182E0C80ED11C99
:102BD0001296BC9012971396AC91B5E0CB16D10427
:102BE00040F0B282A38351834083D9016D937C93DB
:102BF0000AC00E5F1F4FC301800F911FF90191831F
:102C00008083EB2DFA2FE114F10431F0D7011396F4
:102C1000FC93EE93129744C0F093A202E093A102BA
:102C20003FC08D919C9111974817590708F4AC014A
:102C30007D0112960D90BC91A02DB3CF80919F0283
:102C40009091A00288159905E1F446175707C8F43A
:102C50008091000190910101009741F48DB79EB7DA
:102C60004091040150910501841B950BE817F90769
:102C7000C8F4F093A002E0939F02F901718360838E
:102C80000FC0CB010E9462147C01009759F0A8018B
:102C9000BE010E945916CE010E94F714C70104C05C
:102CA000CE0102C080E090E0CDB7DEB7EEE00C943C
:102CB0007B12FB01DC0102C001900D92415050409B
:102CC000D8F70895FC018191861721F08823D9F760
:102CD000992708953197CF010895FB01DC018D916B
:102CE000019080190110D9F3990B0895FB01DC01C3
:102CF00001900D920020E1F7089510E0CBE8D0E0BC
:102D000004C0FE010E945C142196CC38D107C9F79B
:042D1000F894FFCF65
:102D14000000A3028000000000004E01B700E6009E
:102D240095011701F5000901000000001A04EC03E5
:102D34006B03A70355031D03FC02C802A70251023B
:102D44000D026E616E00696E66006F7666000D0A94
:102D5400006E6F2073656E736F7200726F74006D16
:082D6400617800616363000067
:00000001FF
