:100000000C948C000C94B4000C94B4000C94B400C8
:100010000C94B4000C94B4000C94B4000C94B40090
:100020000C94B4000C94B4000C94EA050C940307EF
:100030000C94B4000C9416070C94B4000C94B40007
:100040000C94A0050C94B4000C9462050C943C052F
:100050000C94B4000C94B4000C94B4000C94B40050
:100060000C94B4000C94B40025022B023102370228
:100070003D0243024902B603BD03C403CB03D203CE
:10008000E903D903E903E0034E414E494E4954596F
:10009000494E46CDCCCC3D0AD7233C17B7D1387753
:1000A000CC2B329595E6241FB14F0A000020410069
:1000B00000C84200401C4620BCBE4CCA1B0E5AAEB3
:1000C000C59D740000000800020100000304070041
:1000D0000000000000000000000000250028002BA8
:1000E0000000000000240027002A00040404040487
:1000F00004040402020202020203030303030301D5
:1001000002040810204080010204081020010204AB
:1001100008102000700F950B11241FBECFEFD8E000
:10012000DEBFCDBF22E0A8E5B1E001C01D92A43A38
:10013000B207E1F711E0A0E0B1E0E0E0FFE202C0C9
:1001400005900D92A835B107D9F710E0CBE8D0E0C3
:1001500004C02197FE010E945215CA38D107C9F781
:100160000E94AA0B0C9473170C9400000895CF9270
:10017000DF92EF92FF920F931F93CF93DF936C0167
:100180007A018B01C0E0D0E0CE15DF0589F0D801FF
:100190006D918D01D601ED91FC910190F081E02DE2
:1001A000C6010995892B11F47E0102C02196ECCF7E
:1001B000C701DF91CF911F910F91FF90EF90DF90DA
:1001C000CF900895089580E090E00895FC01538D4C
:1001D000448D252F30E0842F90E0821B930B541721
:1001E00010F0CF96089501970895FC01918D828DAE
:1001F000981761F0828DDF01A80FB11D5D968C917B
:10020000928D9F5F9F73928F90E008958FEF9FEF85
:100210000895FC01918D828D981731F0828DE80F41
:10022000F11D858D90E008958FEF9FEF0895FC01FB
:10023000918D228D892F90E0805C9F4F821B9109C8
:100240008F739927089583E991E00E94170121E0B7
:10025000892B09F420E0822F0895FC01848DDF01B1
:10026000A80FB11DA35ABF4F2C91848D90E0019629
:100270008F739927848FA689B7892C93A089B18918
:100280008C9180648C93938D848D981306C0028822
:10029000F389E02D80818F7D80830895EF92FF9216
:1002A0000F931F93CF93DF93EC0181E0888F9B8D99
:1002B0008C8D981305C0E889F989808185FD24C05B
:1002C000F62E0B8D10E00F5F1F4F0F731127E02EDE
:1002D0008C8DE8120CC00FB607FCFACFE889F989BB
:1002E000808185FFF5CFCE010E942D01F1CF8B8D4E
:1002F000FE01E80FF11DE35AFF4FF0820B8FEA89F0
:10030000FB898081806207C0EE89FF896083E8896C
:10031000F98980818064808381E090E0DF91CF91D2
:100320001F910F91FF90EF900895CF93DF93EC0111
:10033000888D8823C9F0EA89FB89808185FD05C005
:10034000A889B9898C9186FD0FC00FB607FCF5CF3F
:10035000808185FFF2CFA889B9898C9185FFEDCF87
:10036000CE010E942D01E7CFDF91CF91089580E06B
:1003700090E0892B29F00E94230181110C94000048
:10038000089590E0FC01ED53FF4F3491FC01E150E2
:10039000FF4F2491FC01E551FF4FE491EE2309F456
:1003A0003BC0332339F1333091F038F43130A9F0C8
:1003B000323001F584B58F7D12C0373091F038307E
:1003C000A1F03430B9F4809180008F7D03C080911A
:1003D00080008F77809380000DC084B58F7784BDB7
:1003E00009C08091B0008F7703C08091B0008F7DED
:1003F0008093B000F0E0EE0FFF1FE952FF4FA59190
:10040000B4918FB7F894EC91611103C020952E231D
:1004100001C02E2B2C938FBF0895CF93DF9347708D
:10042000552766277727FA013197EC01A881B98112
:10043000E730F10520F4EC5CFF4F0C945215149654
:10044000ED91FC91159761E029C01496ED91FC9116
:10045000159765E023C01496ED91FC91159764E023
:100460001DC01496ED91FC91159766E017C0149687
:10047000ED91FC91159762E011C01496ED91FC91FD
:1004800015976AE00BC01496ED91FC91159768E002
:1004900005C01496ED91FC91159769E0DF91CF911D
:1004A0000994CF93DF93EC01CB01BA0126E030E051
:1004B00040E050E00E9433156230710581059105DE
:1004C00059F18CF46115710581059105F1F06130E8
:1004D000710581059105C1F5E881F9810480F581F7
:1004E000E02D65E02DC0643071058105910511F1A5
:1004F000D4F0653071058105910531F5E881F98108
:100500000480F581E02D66E01BC0E881F98104805C
:10051000F581E02D64E014C0E881F9810480F58163
:10052000E02D61E00DC0E881F9810480F581E02DC6
:1005300063E006C0E881F9810480F581E02D62E086
:10054000CE01DF91CF910994DF91CF91089543704F
:10055000552766277727DC01ED91FC910480F58112
:10056000E02D423051056105710571F043305105B0
:100570006105710559F0413051056105710511F0B2
:1005800065E005C066E003C06AE001C069E0099467
:10059000CF93DF93EC01CB01BA0123E030E040E0E0
:1005A00050E00E943315613071058105910581F09D
:1005B000623071058105910591F0672B682B692BDD
:1005C000C1F4E881F9810480F581E02D64E00DC07B
:1005D000E881F9810480F581E02D61E006C0E881C1
:1005E000F9810480F581E02D62E0CE01DF91CF91A9
:1005F0000994DF91CF910895437055276627772797
:10060000DC01ED91FC910480F581E02D4230510533
:100610006105710571F0433051056105710559F0AF
:10062000413051056105710511F062E005C063E0DC
:1006300003C061E001C060E00994CF93DF93EC0157
:10064000E881F9810480F581E02D8A81811102C061
:1006500060E001C062E0CE010995E881F981048083
:10066000F581E02D8A81811102C061E001C063E063
:10067000CE0109958CA59DA58230910538F0880F93
:10068000991F880F991F05970197F1F7E881F98164
:100690000480F581E02D8A81811102C060E001C0F3
:1006A00062E0CE01DF91CF910994CF93DF93EC010B
:1006B00020E030E0A9016C897D898E899F890E94A4
:1006C000AC1418161CF4E8A9F9A902C0EAA9FBA900
:1006D000DF91CF910994CF92DF92EF92FF920F9327
:1006E0001F93CF93DF93FC012381243041F0283006
:1006F00031F0233031F0263021F012E003C014E055
:1007000001C013E0EC012896E12CF12CC62ED12C6F
:1007100001E0C6010E2C02C0959587950A94E2F778
:10072000688180FD6027FE01349780810E94C101AD
:10073000FFEFEF1AFF0A2196E11658F3DF91CF91F0
:100740001F910F91FF90EF90DF90CF9008950F933E
:100750001F93DC011396EC910E2F10E00930110568
:10076000C0F5F801E55CFF4F0C945215DC01ED91EA
:10077000FC910084F185E02D29C0DC01ED91FC9114
:100780000284F385E02D22C0DC01ED91FC9104840C
:10079000F585E02D1BC0DC01ED91FC910684F78509
:1007A000E02D14C0DC01ED91FC910088F189E02D71
:1007B0000DC0DC01ED91FC910288F389E02D06C0AB
:1007C000DC01ED91FC910488F589E02D1F910F91DA
:1007D00009941F910F910895CF93DF93FC0123811A
:1007E000222329F1EC0184810E941E098D810E943F
:1007F0001E098B81843011F0883029F48E810E948B
:100800001E098F8105C0833011F0863019F48E8166
:100810000E941E098FA58F3F51F00E941E096EA5F0
:1008200081E068278FA5DF91CF910C94C101DF9102
:10083000CF910895CF93DF93FC0123812223A1F070
:10084000EC010190F081E02D0480F581E02D60E065
:1008500009958FA58F3F41F00E941E096EA58FA5B7
:10086000DF91CF910C94C101DF91CF9108950F9347
:100870001F93CF93DF938C01EB01FC018081918169
:100880000097B1F0688179816115710579F0428135
:1008900053812C813D814217530740F00E946C1711
:1008A0008C819D81F8019583848313C00E94ED158E
:1008B00088819981F801918380838A819B819383C8
:1008C00082838C819D8195838483198218821B8207
:1008D0001A821D821C82DF91CF911F910F91089582
:1008E0000F931F93CF93DF93EC0188819981009739
:1008F00029F02A813B812617370788F48B016F5F27
:100900007F4F0E948516009761F0998388831B832F
:100910000A832C813D81232B11F4FC01108281E09C
:1009200001C080E0DF91CF911F910F910895EF9268
:10093000FF920F931F93CF93DF93EC017B018A010A
:10094000BA010E9470042881398181110DC02115DE
:10095000310519F0C9010E94ED15198218821D8216
:100960001C821B821A8206C01D830C83B701C90139
:100970000E946C17CE01DF91CF911F910F91FF90D4
:10098000EF900895FC011182108213821282158269
:1009900014826115710551F0FB0101900020E9F707
:1009A0003197AF01461B570B0C9497040895BF92E3
:1009B000CF92DF92EF92FF920F931F93CF93DF932B
:1009C0007C016B01EA0189012417350720F48D2F82
:1009D000E901042F182F60E471E0C7010E94C204EE
:1009E000D60114968D919C911597C817D907C8F513
:1009F0008017910708F48C01D601ED91FC911197B5
:100A0000E00FF11FB08010824D915C91BA016C0F24
:100A10007D1F6115710561F0FB0101900020E9F770
:100A20003197AF01461B570BC7010E94970413C0B3
:100A3000F70180819181009711F00E94ED15D70197
:100A400011961C921E9215961C921E921497139644
:100A50001C921E921297D601ED91FC91E00FF11FAE
:100A6000B082C701DF91CF911F910F91FF90EF905E
:100A7000DF90CF90BF9008951F920F920FB60F9204
:100A800011242F933F934F935F936F937F938F9393
:100A90009F93AF93BF93EF93FF9383E991E00E94FD
:100AA0002D01FF91EF91BF91AF919F918F917F9118
:100AB0006F915F914F913F912F910F900FBE0F90CB
:100AC0001F9018951F920F920FB60F9211242F931B
:100AD0008F939F93EF93FF93E091A301F091A40173
:100AE0008081E091A901F091AA0182FD12C090815C
:100AF0008091AC018F5F8F732091AD01821751F00F
:100B0000E091AC01F0E0ED56FE4F958F8093AC0183
:100B100001C08081FF91EF919F918F912F910F9054
:100B20000FBE0F901F9018952FB7F8946091610138
:100B30007091620180916301909164012FBF0895CB
:100B40001F920F920FB60F9211242F933F938F9302
:100B50009F93AF93BF938091610190916201A091A7
:100B60006301B09164013091600123E0230F2D37C0
:100B700020F40196A11DB11D05C026E8230F0296A1
:100B8000A11DB11D209360018093610190936201CA
:100B9000A0936301B093640180918F0190919001C3
:100BA000A0919101B09192010196A11DB11D809378
:100BB0008F0190939001A0939101B0939201BF9106
:100BC000AF919F918F913F912F910F900FBE0F90FA
:100BD0001F9018951F920F920FB60F921124CF926B
:100BE000DF92EF92FF920F931F932F933F934F93B8
:100BF0005F936F937F938F939F93AF93BF93EF9385
:100C0000FF932091860030918700C90130918100C7
:100C100020E4232720938100B59A2091650130912B
:100C20006601D901B09B05C08F3F0FE7900708F41C
:100C3000C1C02091810026FFADC020916701309195
:100C400068012115310509F44FC02130310509F043
:100C500054C000915C0110915D0120915E013091C2
:100C60005F01409176015091770160917801709118
:100C70007901480F591F6A1F7B1F401B510B620BE4
:100C8000730B4093760150937701609378017093D2
:100C90007901C0906901D0906A01E0906B01F090F9
:100CA0006C0140916E0150916F01609170017091E3
:100CB00071018C019D01041B150B260B370BC9011B
:100CC000B8010E9424129B01AC01C701B6010E9429
:100CD00004140E947D14609358017093590180930D
:100CE0005A0190935B014CC080936E0190936F0109
:100CF000A0937001B093710143C000915C01109109
:100D00005D0120915E0130915F014091760150912B
:100D100077016091780170917901480F591F6A1F1E
:100D20007B1F401B510B620B730B4093760150935A
:100D30007701609378017093790120916701309178
:100D4000680127703327232BD9F400916E0110918D
:100D50006F012091700130917101409158015091C3
:100D6000590160915A0170915B016C017D01C01ABB
:100D7000D10AE20AF30AC416D506E606F706E8F435
:100D8000809167019091680101969093680180932A
:100D9000670122C09C01205C334630938900209378
:100DA000880080935C0190935D01A0935E01B093F5
:100DB0005F0112C0D90111963CCF809372019093CC
:100DC0007301A0937401B093750110926F0083E2D8
:100DD00086BB81E080936D01FF91EF91BF91AF9150
:100DE0009F918F917F916F915F914F913F912F9143
:100DF0001F910F91FF90EF90DF90CF900F900FBE5B
:100E00000F901F9018951F920F920FB60F921124FA
:100E10008F9310926F0083E286BB82E080936D0116
:100E20008F910F900FBE0F901F9018951F920F92E9
:100E30000FB60F9211248F939F938091650190912B
:100E40006601019690936601809365019F918F9151
:100E50000F900FBE0F901F9018952F923F924F92B8
:100E60005F926F927F928F929F92AF92BF92CF923A
:100E7000DF92EF92FF920F931F93CF93DF9300D0F7
:100E800000D0CDB7DEB71C01FC01C088D188E28854
:100E9000F38884859585A685B785C81AD90AEA0A94
:100EA000FB0A64897589868997899B01AC010E9438
:100EB00085124B015C01F101648D758D868D978DD6
:100EC0009B01AC010E9498139B01AC01C501B401C8
:100ED0000E9404140E947614C114D104E104F104A8
:100EE000A1F462307105810591050CF07CC0F1011F
:100EF00014A215A216A217A2148A158A168A178A96
:100F000014AA15AA16AA17AAFFC0F10104A915A9C7
:100F100026A937A91C141D041E041F0404F510166D
:100F20001106120613064CF46C157D058E059F05FF
:100F30005CF52281211157C027C00115110521053B
:100F4000310509F450C06C157D058E059F050CF028
:100F50004AC0F1018281882309F445C039C01016C6
:100F6000110612061306FCF40027112798010C192C
:100F70001D092E093F09601771078207930724F4A2
:100F8000F1012281222379F19B01AC018827992765
:100F9000DC01821B930BA40BB50BF10184AB95AB69
:100FA000A6ABB7AB20C00115110521053105D9F05D
:100FB0008824992454018C189D08AE08BF08681530
:100FC00079058A059B057CF4F101828181110BC0B2
:100FD00030952095109501951F4F2F4F3F4F04AB33
:100FE00015AB26AB37ABF10184A895A8A6A8B7A886
:100FF00081149104A104B10491F480AD91ADA2AD2E
:10100000B3AD84AF95AFA6AFB7AF81E01C141D049C
:101010001E041F040CF080E0F101828341C0F10145
:10102000C4ACD5ACE6ACF7ACA7019601C701B601DC
:101030000E9498132B013C01C501B4010E942612A5
:1010400020E030E040E850E40E94851220E030E0EB
:1010500040E85FE30E9498139B01AC01C301B20119
:101060000E9404149B01AC01C701B6010E949713B2
:101070007B018C01F101E05CFF4F60807180C280D8
:10108000D3809301A6010E94AC14181614F07301CA
:101090008601A701B801F10144AF55AF66AF77AF44
:1010A000FFEF8F1A9F0AAF0ABF0AF10184AA95AA1F
:1010B000A6AAB7AA24AD35AD46AD57ADCA01B90150
:1010C00029833A834B835C830E947D14F10164A3DE
:1010D00075A386A397A329813A814B815C8160E047
:1010E00074E284E799E40E940414F101648B758B27
:1010F000868B978B2281211107C0DC01CB01B05870
:10110000848B958BA68BB78B0F900F900F900F90C1
:10111000DF91CF911F910F91FF90EF90DF90CF90D3
:10112000BF90AF909F908F907F906F905F904F9007
:101130003F902F9008954F925F926F927F928F927F
:101140009F92AF92BF92CF92DF92EF92FF92CF9396
:10115000DF93EC016A017B0120E030E0A901C701C7
:10116000B6010E941F1287FF04C0F7FAF094F7F847
:10117000F0948C8C9D8CAE8CBF8CA7019601C50120
:10118000B4010E941F12882309F449C06CA97DA9EB
:101190008EA99FA90E9426122B013C01A70196014E
:1011A000C501B4010E9404149B01AC01C301B2014A
:1011B0000E9485120E9476146CAB7DAB8EAB9FAB08
:1011C000A701960160E070E080E090E40E940414C2
:1011D0000E94B71426E53EE04DE25FE30E948512CF
:1011E00020E034E244E759E40E94851268AF79AF09
:1011F0008AAF9BAFCC8EDD8EEE8EFF8ECE01DF915F
:10120000CF91FF90EF90DF90CF90BF90AF909F90E5
:101210008F907F906F905F904F900C942D07DF918F
:10122000CF91FF90EF90DF90CF90BF90AF909F90C5
:101230008F907F906F905F904F90089590E0FC01A9
:10124000E150FF4F2491FC01E551FF4F8491882329
:1012500099F090E0880F991FFC01EF51FF4FA59185
:10126000B491FC01E952FF4F859194918FB7F894A6
:10127000EC91E22BEC938FBF0895CF92DF92EF9227
:10128000FF9280917E0290917F02A0918002B091A6
:101290008102892B8A2B8B2B11F480E06EC03FB723
:1012A000F89480918F0190919001A0919101B0915B
:1012B000920126B5A89B05C02F3F19F00196A11DEC
:1012C000B11D3FBFCC24D82EE92EFA2EC20ED11C60
:1012D000E11CF11C42E0CC0CDD1CEE1CFF1C4A950D
:1012E000D1F78091820290918302A0918402B09103
:1012F0008502B701A601481B590B6A0B7B0B809135
:101300007E0290917F02A0918002B09181024817E5
:1013100059076A077B0708F4C0CF20915C028091CF
:10132000660290916702A0916802B091690222233F
:1013300021F00196A11DB11D03C00197A109B109BA
:101340008093660290936702A0936802B09369024B
:101350004091660250916702609168027091690243
:101360008AE592E00E94A703C0928202D092830293
:10137000E0928402F092850281E0FF90EF90DF908E
:10138000CF9008950F931F930E943D09882321F069
:101390008AE592E00E942D0720E030E0A9016091EB
:1013A0006E0270916F0280917002909171020E94A2
:1013B0001F12811118C081E000916A0210916B0226
:1013C00020916C0230916D0240916602509167024B
:1013D00060916802709169020417150726073707A4
:1013E00019F480E001C081E01F910F9108950097EA
:1013F00069F0FC0101900020E9F73197AF01481B2B
:10140000590BBC0183E991E00C94B70080E090E0B7
:1014100008958F929F92AF92BF92CF92DF92EF92F8
:10142000FF920F931F93CF93DF938B01D82FC92F78
:1014300020916E0230916F024091700250917102C2
:101440000E941F12882309F460C0C0907202D090DD
:101450007302E0907402F090750246015701B7FAEA
:10146000B094B7F8B094A5019401B8018D2F9C2FCA
:101470000E941F1287FD0DC0A7019601B8018D2F94
:101480009C2F0E94AC14181634F06801ED2EFC2E2F
:1014900002C07501640120E030E0A901C701B60176
:1014A0000E941F12811109C010927E0210927F02C9
:1014B000109280021092810220C0A701960160E084
:1014C00074E284E799E40E9404149F770E947D14DB
:1014D00060937E0270937F028093800290938102DA
:1014E000C1E020E030E0A901C701B6010E94AC14C0
:1014F00018160CF0C0E0C0935C02C0926E02D0924D
:101500006F02E0927002F0927102DF91CF911F9111
:101510000F91FF90EF90DF90CF90BF90AF909F9092
:101520008F9008958091360290913702009711F0C4
:101530000C94611060E070E0CB010895CF92DF92CF
:10154000EF92FF926B017C0120E030E0A9010E9444
:101550001F1287FF04C0F7FAF094F7F8F094A70180
:101560009601609172027091730280917402909161
:1015700075020E941F12882309F457C0C09272029C
:10158000D0927302E0927402F0927502A701960164
:1015900060E074E284E799E40E94041460939A0284
:1015A00070939B0280939C0290939D0280918E0287
:1015B00090918F02A0919002B09191021816190695
:1015C0001A061B0694F560916E0270916F0280916D
:1015D0007002909171029B01AC010E9485126B0117
:1015E0007C016091760270917702809178029091EF
:1015F00079029B01AC010E9498139B01AC01C701C9
:10160000B6010E9404140E94761460938E027093B7
:101610008F0280939002909391028AE592E0FF906E
:10162000EF90DF90CF900C942D07FF90EF90DF901C
:10163000CF9008950F931F930E94940560939B0190
:1016400070939C0180939D0190939E01E091930182
:10165000F09194010284F385E02D83E991E00995EE
:1016600097FF1FC00E94940500919B0110919C015F
:1016700020919D0130919E01DC01CB01801B910BDB
:10168000A20BB30B00919701109198012091990141
:1016900030919A0180179107A207B307B8F28FEF34
:1016A0009FEF1F910F9108958F929F92AF92BF92DB
:1016B0000F931F93CF93DF93CDB7DEB7A1970FB6EC
:1016C000F894DEBF0FBECDBF19A2423008F44AE045
:1016D0008E010F5D1F4F842E912CA12CB12CA501E2
:1016E00094010E941115E62FB901CA010150110998
:1016F000EA3014F4E05D01C0E95CD801EC93232BDF
:10170000242B252B61F7C8010E94F709A1960FB67B
:10171000F894DEBF0FBECDBFDF91CF911F910F9127
:10172000BF90AF909F908F900895CF93DF93C4E5C3
:10173000D2E02697888199810E94ED1582E0C0331E
:10174000D807B9F78091540290915502DF91CF915B
:101750000C94ED15CF93DF93CDB7DEB72E970FB670
:10176000F894DEBF0FBECDBF789484B5826084BD8F
:1017700084B5816084BD85B5826085BD85B5816095
:1017800085BD80916E00816080936E001092810013
:1017900080918100826080938100809181008160CE
:1017A000809381008091800081608093800080918F
:1017B000B10084608093B1008091B000816080931B
:1017C000B00080917A00846080937A0080917A00E2
:1017D000826080937A0080917A00816080937A00A1
:1017E00080917A00806880937A001092C100E09125
:1017F000A301F091A40182E08083E0919F01F09128
:10180000A0011082E091A101F091A20180E180830A
:101810001092AB01E091A701F091A80186E08083CE
:10182000E091A501F091A601808180618083E09123
:10183000A501F091A601808188608083E091A501D7
:10184000F091A601808180688083E091A501F091EC
:10185000A60180818F7D80838E010F5F1F4F96E0F0
:10186000292E332433940E94940560938B01709346
:101870008C0180938D0190938E01C0908701D09050
:101880008801E0908901F0908A01DC01CB018C197C
:101890009D09AE09BF09883E9340A105B1050CF42E
:1018A000DCC0C0908301D0908401E0908501F0906D
:1018B000860120E030E0A901C701B6010E941F1295
:1018C000882309F4CAC0A7019601C701B6010E9486
:1018D000F714882319F082E391E01AC046015701FA
:1018E000E894B7F82FEF3FEF4FE75FE7C501B4018A
:1018F0000E94F71481110FC02FEF3FEF4FE75FE712
:10190000C501B4010E941F1218162CF486E391E061
:101910000E94F70982C02FEF3FEF4FE75FE4C70156
:10192000B6010E94AC1418161CF48AE391E0F0CFC3
:101930002FEF3FEF4FE75FECC701B6010E941F1288
:1019400087FDF3CF20E030E0A901C701B6010E9476
:101950001F1287FF0FC0E0919301F0919401019055
:10196000F081E02D6DE283E991E00995F7FAF094BA
:10197000F7F8F0942AE037ED43EA5BE3C701B601DC
:101980000E9498134B015C010E947D146B017C0145
:101990000E9424129B01AC01C501B4010E9497135F
:1019A0004B015C014AE0C701B6010E94540BE09173
:1019B0009301F09194010190F081E02D6EE283E9B2
:1019C00091E0099520E030E040E251E4C501B40126
:1019D0000E9485126B017C010E947D144B01A12C99
:1019E000B12C4AE0C501B4010E94540BC501B401F9
:1019F0000E9424129B01AC01C701B6010E949713FB
:101A000020E030E040E251E40E9485120E947D1403
:101A100080E090E04AE00E94540B8EE391E00E9447
:101A2000F70910928301109284011092850110929F
:101A300086018091820181110E943D09809181017E
:101A400081110E94C2090E949405609387017093DE
:101A500088018093890190938A0180918B019091F4
:101A60008C01A0918D01B0918E0140917D0150912A
:101A70007E0160917F0170918001841B950BA60B04
:101A8000B70B843F9140A105B1050CF4C2C08AE8B0
:101A900099EAA6ECBFE48093690190936A01A09350
:101AA0006B01B0936C0110926D011092680110925D
:101AB00067011092760110927701109278011092CE
:101AC00079011092660110926501109280001092C7
:101AD00081001092850010928400A0E4BCE9B093CC
:101AE0008900A0938800B1E4B093810023E226BB73
:101AF00020936F0080916D018130C9F060F08230D9
:101B000009F073C081E491E00E94F7098EE391E04F
:101B10000E94F70960C08091820181110E943D09F5
:101B200080918101882331F30E94C209E3CF609143
:101B30007601709177018091780190917901C09040
:101B40007201D0907301E0907401F09075014090A3
:101B50006E0150906F0160907001709071010E9451
:101B600024124B015C01C701B6016419750986098D
:101B700097090E9424129B01AC01C501B4010E9487
:101B800004146B017C019B01AC010E9485122DE3C2
:101B90003AE047EB5FEB0E9485124B015C012CE5BC
:101BA0003FE846E553E4C701B6010E9485129B0158
:101BB000AC01C501B4010E94981323E333E349E863
:101BC00052E40E9497136093830170938401809381
:101BD0008501909386018091820181110E943D09C7
:101BE0008091810181110E94C2098091820181113D
:101BF0000E943D098091810181110E94C2090E94C9
:101C0000940560937D0170937E0180937F01909392
:101C1000800183E991E00E941701181619060CF063
:101C200052C160E471E0C8010E94C2040E941A0B14
:101C300097FD1EC08A309105D9F08F831886ED80FC
:101C4000FE808FEFE81AF80AB701C8010E947004FD
:101C5000882361F329813A818D819E81BE01695F6C
:101C60007F4F820F931F0E946C17FE82ED82DECFA2
:101C7000B80184E592E00E94370489819A810E942C
:101C8000ED1518861F821A8619861C861B866091A0
:101C90005402709155026115710541F0409158024E
:101CA00050915902CE0107960E94970440E050E0FF
:101CB000E12CF12C8B849C844815590598F4AF8055
:101CC000B8846AE370E0C501840F951F4D875E8775
:101CD0000E9458174D855E85009721F06C01CA1847
:101CE000DB0803C0CC24CA94DC2CCA0101968C15F5
:101CF0009D051CF59601BE01695F7F4FC8010E94DA
:101D0000D7042E9CC0012F9C900D1124805D9D4F07
:101D10008017910719F0B8010E94370489819A81D0
:101D20000E94ED159FEFE91AF90AA6E0EA16F10400
:101D30002CF5A6014F5F5F4FBDCFD7FEBBCFB6E0FE
:101D4000EB16F104DCF49401BE01695F7F4FC8011A
:101D50000E94D7042E9CC0012F9C900D1124805D01
:101D60009D4F8017910719F0B8010E9437048981AF
:101D70009A810E94ED152FEFE21AF20AF0927C018F
:101D8000E0927B018F8198850E94ED15809134024D
:101D900090913502892BD1F06BE471E08091300293
:101DA000909131020E946317892B81F480917A010E
:101DB000882361F030928201109281010E94920A80
:101DC0000E949E0A0E94920A0E94090A809134028F
:101DD00090913502892B31F16FE471E080913002EE
:101DE000909131020E946317892BE1F40E94920ABC
:101DF00020E030E0A9010E94AC1418169CF40E9467
:101E0000920A6B017C0120E030E0A9010E941F12C0
:101E1000882331F0B701A6018AE592E00E949B0871
:101E200030927A018091340290913502892B09F425
:101E30004AC063E571E080913002909131020E94C6
:101E40006317892B09F03FC0309281011092820103
:101E50000E94920A0E949E0A0E94920A0E94090A07
:101E600080913C0290913D02009719F00E9465100C
:101E700003C060E070E0CB01C0906602D0906702C2
:101E8000E0906802F0906902DC01CB018C0D9D1D91
:101E9000AE1DBF1DC0906A02D0906B02E0906C0234
:101EA000F0906D02C816D906EA06FB0661F0809331
:101EB0006A0290936B02A0936C02B0936D028AE564
:101EC00092E00E942D078091820181110E943D09BC
:101ED0008091810181110E94C2090E94B701C3CC87
:101EE000CF93DF93109296011092950188EE93E0C4
:101EF000A0E0B0E08093970190939801A09399019E
:101F0000B0939A018AE091E09093940180939301B9
:101F100085EC90E09093A00180939F0184EC90E089
:101F20009093A2018093A10180EC90E09093A40192
:101F30008093A30181EC90E09093A6018093A5018A
:101F400082EC90E09093A8018093A70186EC90E04A
:101F50009093AA018093A9011092AC011092AD0157
:101F60001092AE011092AF018CE191E090935B0270
:101F700080935A0281E080935D0210926602109273
:101F80006702109268021092690210926A0210921F
:101F90006B0210926C0210926D0210926E021092FF
:101FA0006F02109270021092710280E090E0A0E83F
:101FB000BFE38093720290937302A0937402B09374
:101FC00075021092760210927702109278021092A7
:101FD000790280937A0290937B02A0937C02B09363
:101FE0007D0210927E0210927F0210928002109267
:101FF000810221E030E030938702209386022FEFA8
:10200000209389021092820210928302109284021D
:10201000109285022BE020935E022CE020935F0259
:1020200024E02093600225E02093610210928E024A
:1020300010928F02109290021092910210929202CE
:1020400010929302109294021092950210929602AE
:1020500010929702109298021092990280939A021D
:1020600090939B02A0939C02B0939D0210925C02FD
:102070001092620210926302109264021092650242
:102080008AE592E00E94EC0340E050E060E87FE3E4
:102090008AE592E00E949B0860E471E084E592E0AA
:1020A0000E94C204C0E3D2E060E471E0CE010E946D
:1020B000C204269682E0C435D807B1F7DF91CF91EC
:1020C0000895662777270C94A1101F93FC01992788
:1020D0008827BC01E89411911032E9F3193010F00F
:1020E0001E30C8F31B3251F01D3249F4689406C00B
:1020F0000E948C10610F711D811D911D1191105353
:102100001A30B0F33EF490958095709561957F4FAD
:102110008F4F9F4F1F910895592F482F372F262FEC
:10212000660F771F881F991F660F771F881F991FDB
:10213000620F731F841F951F660F771F881F991FDB
:102140000895A0E0B0E0E7EAF0E10C945513EC014B
:102150007B016115710519F0DB018D939C938E0154
:102160000F5F1F4F7880872D90E00E94FE11892B12
:1021700011F0E801F4CFBDE27B1205C00F5F1F4FE5
:102180007980C1E008C0EBE27E1204C08E010E5FD0
:102190001F4F7980C0E06801F1E0CF1AD10843E019
:1021A00050E060E970E0C6010E940712892BF1F44B
:1021B000680122E0C20ED11C45E050E06BE870E0FF
:1021C000C6010E940712892B21F4680187E0C80E1E
:1021D000D11CE114F10419F0D701CD92DC92C111A8
:1021E000FFC060E070E080E89FE703C143E050E09B
:1021F00068E870E0C6010E940712892B51F4E114CF
:10220000F10409F4F2C00E5F1F4FF7011183008340
:10221000ECC0680160E070E0CB0100E010E0F60186
:10222000D0EDD70DDA3058F52C2F2260622E2C2FEE
:102230002870C2FF05C0211128C00F5F1F4F25C0A5
:10224000222311F001501109A5E0B0E09B01AC017F
:102250000E9446134B015C01880C991CAA1CBB1CF4
:10226000C501B4016D0F711D811D911D6839A9E96A
:102270007A078A07A9E19A0740F0C66005C0DE3FE9
:1022800051F4C3FD44C0C8606C2EBFEFCB1ADB0A0B
:102290007080C62DC4CF2D2F2F7D2531C1F54081F3
:1022A0004D3211F4C06106C04B3221F0319621E06D
:1022B00030E006C03296D60111964C9122E030E013
:1022C000A0EDA40FAA3018F0E21BF30B20C040E0F1
:1022D00050E04038BCE05B075CF49A01220F331FEA
:1022E000220F331F420F531F440F551F4A0F511D1A
:1022F0003196DF0111972C91A0EDA20FAA3048F37F
:10230000C4FF03C0519541955109040F151FC1FF2A
:1023100007C0E114F10421F03197D701ED93FC934C
:102320000E942412C370C33019F06B017C0106C0F7
:102330006B017C01F7FAF094F7F8F09420E030E0BC
:10234000A901C701B6010E941F12882309F445C0E4
:1023500017FF06C0119501951109C7EAD0E002C028
:10236000CFEBD0E05E01B8E1AB1AB1084601BE2D5B
:10237000AF2D90E2E92EF12C0E151F0584F0FE0121
:102380002591359145915491B4018B2F9A2F0E943C
:1023900085124B01B82FA92F0E191F09EDCF2497D5
:1023A000F594E794CA15DB0539F76401EB2EFA2E94
:1023B0008E2D880F8F2D881F8F3F49F020E030E051
:1023C000A901C701B6010E941F12811106C082E255
:1023D00090E090939F0280939E02C701B60109C0CE
:1023E00060E070E080E89FEF04C060E070E080ECA7
:1023F0009FE7CDB7DEB7EEE00C94711391110C940A
:10240000F212803219F089508550C8F70895FB0107
:10241000DC014150504088F08D9181341CF08B35A7
:102420000CF4805E659161341CF06B350CF4605ED9
:10243000861B611171F3990B0895881BFCCF0E94D4
:10244000611208F481E00895E89409C097FB3EF416
:1024500090958095709561957F4F8F4F9F4F9923F1
:10246000A9F0F92F96E9BB279395F695879577956F
:102470006795B795F111F8CFFAF4BB0F11F460FF2F
:102480001BC06F5F7F4F8F4F9F4F16C0882311F087
:1024900096E911C0772321F09EE8872F762F05C09B
:1024A000662371F096E8862F70E060E02AF09A9536
:1024B000660F771F881FDAF7880F9695879597F92B
:1024C0000895990F0008550FAA0BE0E8FEEF1616C5
:1024D0001706E807F907C0F012161306E407F50718
:1024E00098F0621B730B840B950B39F40A2661F08C
:1024F000232B242B252B21F408950A2609F4A1402F
:10250000A6958FEF811D811D08950E9498120C944D
:102510000C130E94FE1238F00E94051320F0952340
:1025200011F00C94F5120C94FB1211240C9440132E
:102530000E941D1370F3959FC1F3950F50E0551F36
:10254000629FF001729FBB27F00DB11D639FAA2708
:10255000F00DB11DAA1F649F6627B00DA11D661F57
:10256000829F2227B00DA11D621F739FB00DA11D78
:10257000621F839FA00D611D221F749F3327A00D32
:10258000611D231F849F600D211D822F762F6A2FCE
:1025900011249F5750409AF0F1F088234AF0EE0F33
:1025A000FF1FBB1F661F771F881F91505040A9F760
:1025B0009E3F510580F00C94F5120C9440135F3F40
:1025C000E4F3983ED4F3869577956795B795F7959C
:1025D000E7959F5FC1F7FE2B880F911D9695879514
:1025E00097F9089599278827089597F99F6780E8B4
:1025F00070E060E008959FEF80EC089500240A9455
:102600001616170618060906089500240A941216CD
:102610001306140605060895092E0394000C11F400
:10262000882352F0BB0F40F4BF2B11F460FF04C0AD
:102630006F5F7F4F8F4F9F4F089557FD9058440F06
:10264000551F59F05F3F71F04795880F97FB991F11
:1026500061F09F3F79F087950895121613061406CE
:10266000551FF2CF4695F1DF08C01616170618065B
:10267000991FF1CF86957105610508940895E89436
:10268000BB2766277727CB0197F908950E94881307
:10269000A59F900DB49F900DA49F800D911D1124B6
:1026A00008952F923F924F925F926F927F928F92F6
:1026B0009F92AF92BF92CF92DF92EF92FF920F93D1
:1026C0001F93CF93DF93CDB7DEB7CA1BDB0B0FB6DB
:1026D000F894DEBF0FBECDBF09942A883988488898
:1026E0005F846E847D848C849B84AA84B984C8842E
:1026F000DF80EE80FD800C811B81AA81B981CE0F25
:10270000D11D0FB6F894DEBF0FBECDBFED01089509
:10271000A29FB001B39FC001A39F700D811D112422
:10272000911DB29F700D811D1124911D0895505867
:10273000BB27AA270E94AF130C940C130E94FE1211
:1027400038F00E94051320F039F49F3F19F426F465
:102750000C94FB120EF4E095E7FB0C94F512E92FB4
:102760000E941D1358F3BA17620773078407950771
:1027700020F079F4A6F50C943F130EF4E0950B2E9F
:10278000BA2FA02D0B01B90190010C01CA01A001C3
:102790001124FF27591B99F0593F50F4503E68F11E
:1027A0001A16F040A22F232F342F4427585FF3CF5F
:1027B000469537952795A795F0405395C9F77EF430
:1027C0001F16BA0B620B730B840BBAF09150A1F079
:1027D000FF0FBB1F661F771F881FC2F70EC0BA0FFF
:1027E000621F731F841F48F4879577956795B79587
:1027F000F7959E3F08F0B0CF9395880F08F0992782
:10280000EE0F9795879508950E9418140C940C1359
:102810000E94051358F00E94FE1240F029F45F3F19
:1028200029F00C94F51251110C9440130C94FB12E6
:102830000E941D1368F39923B1F3552391F3951B5F
:10284000550BBB27AA2762177307840738F09F5FD1
:102850005F4F220F331F441FAA1FA9F335D00E2E3E
:102860003AF0E0E832D091505040E695001CCAF7AB
:102870002BD0FE2F29D0660F771F881FBB1F26176E
:1028800037074807AB07B0E809F0BB0B802DBF0145
:10289000FF2793585F4F3AF09E3F510578F00C9414
:1028A000F5120C9440135F3FE4F3983ED4F3869501
:1028B00077956795B795F7959F5FC9F7880F911D35
:1028C0009695879597F90895E1E0660F771F881F21
:1028D000BB1F621773078407BA0720F0621B730BD4
:1028E000840BBA0BEE1F88F7E09508950E947D14C3
:1028F0006894B1110C94401308950E94251388F038
:102900009F5798F0B92F9927B751B0F0E1F0660FB3
:10291000771F881F991F1AF0BA95C9F714C0B130F4
:1029200091F00E943F13B1E008950C943F13672F7C
:10293000782F8827B85F39F0B93FCCF38695779523
:102940006795B395D9F73EF490958095709561950C
:102950007F4F8F4F9F4F08950E94611208F48FEFB1
:10296000089519F416F40C94FB120C94FC140E94B4
:102970002513B8F39923C9F3B6F39F57550B87FF77
:102980000E940A150024A0E640EA9001805856955E
:10299000979528F4805C660F771F881F20F0261714
:1029A0003707480730F4621B730B840B2029312949
:1029B0004A2BA69517940794202531254A2758F7C6
:1029C000660F771F881F20F026173707480730F457
:1029D000620B730B840B200D311D411DA09581F7F7
:1029E000B901842F9158880F9695879508950E9474
:1029F0006112880B990B08959F3F31F0915020F49C
:102A0000879577956795B795880F911D96958795CA
:102A100097F9089591505040660F771F881FD2F79D
:102A20000895A1E21A2EAA1BBB1BFD010DC0AA1F0F
:102A3000BB1FEE1FFF1FA217B307E407F50720F027
:102A4000A21BB30BE40BF50B661F771F881F991FA2
:102A50001A9469F760957095809590959B01AC01EB
:102A6000BD01CF010895052E97FB1EF400940E942E
:102A70004A1557FD07D00E94111507FC03D04EF4EC
:102A80000C944A1550954095309521953F4F4F4FE6
:102A90005F4F089590958095709561957F4F8F4F0A
:102AA0009F4F0895EE0FFF1F0590F491E02D0994BC
:102AB000CF93DF938230910510F482E090E0E091B3
:102AC000A202F091A30220E030E0C0E0D0E0309715
:102AD00011F14081518148175907C0F04817590733
:102AE00061F482819381209719F09B838A832BC0A4
:102AF0009093A3028093A20226C02115310519F0FC
:102B00004217530718F49A01BE01DF01EF0102805A
:102B1000F381E02DDCCF2115310509F1281B390B9C
:102B20002430310590F412968D919C911397611584
:102B3000710521F0FB019383828304C09093A3026B
:102B40008093A202FD01329644C0FD01E20FF31F03
:102B500081939193225031092D933C933AC0209157
:102B6000A0023091A102232B41F420910201309167
:102B700003013093A1022093A00220910001309123
:102B800001012115310541F42DB73EB740910401F3
:102B900050910501241B350BE091A002F091A10298
:102BA000E217F307A0F42E1B3F0B2817390778F024
:102BB000AC014E5F5F4F2417350748F04E0F5F1F83
:102BC0005093A1024093A0028193919302C0E0E050
:102BD000F0E0CF01DF91CF9108950F931F93CF9332
:102BE000DF93009709F48CC0FC01329713821282A4
:102BF0000091A2021091A3020115110581F4208118
:102C00003181820F931F2091A0023091A1022817D9
:102C1000390779F5F093A102E093A00271C0D801C1
:102C200040E050E0AE17BF0750F412962D913C9152
:102C30001397AD012115310509F1D901F3CF9D019C
:102C4000DA013383228360817181860F971F821797
:102C5000930769F4EC0128813981260F371F2E5F15
:102C60003F4F318320838A819B8193838283452BCD
:102C700029F4F093A302E093A20242C01396FC93BE
:102C8000EE931297ED01499159919E01240F351F42
:102C9000E217F30771F480819181840F951F0296EA
:102CA00011969C938E938281938113969C938E931D
:102CB0001297E0E0F0E0D80112968D919C91139765
:102CC000009719F0F8018C01F6CF8D919C91980135
:102CD0002E5F3F4F820F931F2091A0023091A102DF
:102CE0002817390769F4309729F41092A30210923B
:102CF000A20202C0138212821093A1020093A002CA
:102D0000DF91CF911F910F910895A0E0B0E0EBE823
:102D1000F6E10C945513EC01009721F4CB010E94CD
:102D20005815B8C0FC01E60FF71F9C01225031096D
:102D3000E217F30708F4ACC0D9010D911C9111976B
:102D400006171707B0F00530110508F49FC0C80139
:102D500004978617970708F499C002501109061BBB
:102D6000170B019311936D937C93CF010E94ED1586
:102D70008DC05B01A01AB10A4C01800E911EA0917A
:102D8000A202B091A30240E050E0E12CF12C109798
:102D900009F44AC0A815B905D1F56D907C9011973A
:102DA000630182E0C80ED11CCA14DB0480F1A301C8
:102DB0004A195B096A0182E0C80ED11C1296BC90C8
:102DC00012971396AC91B5E0CB16D10440F0B282C5
:102DD000A38351834083D9016D937C930AC00E5F16
:102DE0001F4FC301800F911FF90191838083EB2D49
:102DF000FA2FE114F10431F0D7011396FC93EE930E
:102E0000129744C0F093A302E093A2023FC08D91B9
:102E10009C9111974817590708F4AC017D0112964F
:102E20000D90BC91A02DB3CF8091A0029091A102F2
:102E300088159905E1F446175707C8F480910001F9
:102E400090910101009741F48DB79EB74091040124
:102E500050910501841B950BE817F907C8F4F0930E
:102E6000A102E093A002F901718360830FC0CB013E
:102E70000E9458157C01009759F0A801BE010E94DC
:102E80004F17CE010E94ED15C70104C0CE0102C04C
:102E900080E090E0CDB7DEB7EEE00C947113FB015B
:102EA000DC0102C001900D9241505040D8F70895C6
:102EB000FC018191861721F08823D9F7992708957D
:102EC0003197CF010895FB01DC018D9101908019AC
:102ED0000110D9F3990B0895FB01DC0101900D92CB
:102EE0000020E1F7089510E0CBE8D0E004C0FE0137
:102EF0000E9452152196CC38D107C9F7F894FFCF1C
:102F00000000A4028000000000004E01B700E600AF
:102F100095011701F5000901000000001A04EC03F7
:102F20006B03A70355031D03FC02C802A70251024D
:102F30000D026E616E00696E66006F7666000D0AA6
:102F4000006E6F2073656E736F7200726F74006134
:082F5000636300706F73000061
:00000001FF
