:100000000C948C000C94B4000C94B4000C94B400C8
:100010000C94B4000C94B4000C94B4000C94B40090
:100020000C94B4000C94B4000C94EA050C940307EF
:100030000C94B4000C9416070C94B4000C94B40007
:100040000C94A0050C94B4000C9462050C943C052F
:100050000C94B4000C94B4000C94B4000C94B40050
:100060000C94B4000C94B40025022B023102370228
:100070003D0243024902B603BD03C403CB03D203CE
:10008000E903D903E903E0034E414E494E4954596F
:10009000494E46CDCCCC3D0AD7233C17B7D1387753
:1000A000CC2B329595E6241FB14F0A000020410069
:1000B00000C84200401C4620BCBE4CCA1B0E5AAEB3
:1000C000C59D740000000800020100000304070041
:1000D0000000000000000000000000250028002BA8
:1000E0000000000000240027002A00040404040487
:1000F00004040402020202020203030303030301D5
:1001000002040810204080010204081020010204AB
:1001100008102000820E4F0A11241FBECFEFD8E036
:10012000DEBFCDBF22E0A0E5B1E001C01D92A9393C
:10013000B207E1F711E0A0E0B1E0ECEAFCE202C0B6
:1001400005900D92A035B107D9F710E0CBE8D0E0CB
:1001500004C02197FE010E942814CA38D107C9F7AC
:100160000E94640A0C9449160C9400000895CF92E2
:10017000DF92EF92FF920F931F93CF93DF936C0167
:100180007A018B01C0E0D0E0CE15DF0589F0D801FF
:100190006D918D01D601ED91FC910190F081E02DE2
:1001A000C6010995892B11F47E0102C02196ECCF7E
:1001B000C701DF91CF911F910F91FF90EF90DF90DA
:1001C000CF900895089580E090E00895FC01538D4C
:1001D000448D252F30E0842F90E0821B930B541721
:1001E00010F0CF96089501970895FC01918D828DAE
:1001F000981761F0828DDF01A80FB11D5D968C917B
:10020000928D9F5F9F73928F90E008958FEF9FEF85
:100210000895FC01918D828D981731F0828DE80F41
:10022000F11D858D90E008958FEF9FEF0895FC01FB
:10023000918D228D892F90E0805C9F4F821B9109C8
:100240008F739927089588E891E00E94170121E0B3
:10025000892B09F420E0822F0895FC01848DDF01B1
:10026000A80FB11DA35ABF4F2C91848D90E0019629
:100270008F739927848FA689B7892C93A089B18918
:100280008C9180648C93938D848D981306C0028822
:10029000F389E02D80818F7D80830895EF92FF9216
:1002A0000F931F93CF93DF93EC0181E0888F9B8D99
:1002B0008C8D981305C0E889F989808185FD24C05B
:1002C000F62E0B8D10E00F5F1F4F0F731127E02EDE
:1002D0008C8DE8120CC00FB607FCFACFE889F989BB
:1002E000808185FFF5CFCE010E942D01F1CF8B8D4E
:1002F000FE01E80FF11DE35AFF4FF0820B8FEA89F0
:10030000FB898081806207C0EE89FF896083E8896C
:10031000F98980818064808381E090E0DF91CF91D2
:100320001F910F91FF90EF900895CF93DF93EC0111
:10033000888D8823C9F0EA89FB89808185FD05C005
:10034000A889B9898C9186FD0FC00FB607FCF5CF3F
:10035000808185FFF2CFA889B9898C9185FFEDCF87
:10036000CE010E942D01E7CFDF91CF91089580E06B
:1003700090E0892B29F00E94230181110C94000048
:10038000089590E0FC01ED53FF4F3491FC01E150E2
:10039000FF4F2491FC01E551FF4FE491EE2309F456
:1003A0003BC0332339F1333091F038F43130A9F0C8
:1003B000323001F584B58F7D12C0373091F038307E
:1003C000A1F03430B9F4809180008F7D03C080911A
:1003D00080008F77809380000DC084B58F7784BDB7
:1003E00009C08091B0008F7703C08091B0008F7DED
:1003F0008093B000F0E0EE0FFF1FE952FF4FA59190
:10040000B4918FB7F894EC91611103C020952E231D
:1004100001C02E2B2C938FBF0895CF93DF9347708D
:10042000552766277727FA013197EC01A881B98112
:10043000E730F10520F4EC5CFF4F0C94281414967F
:10044000ED91FC91159761E029C01496ED91FC9116
:10045000159765E023C01496ED91FC91159764E023
:100460001DC01496ED91FC91159766E017C0149687
:10047000ED91FC91159762E011C01496ED91FC91FD
:1004800015976AE00BC01496ED91FC91159768E002
:1004900005C01496ED91FC91159769E0DF91CF911D
:1004A0000994CF93DF93EC01CB01BA0126E030E051
:1004B00040E050E00E940914623071058105910509
:1004C00059F18CF46115710581059105F1F06130E8
:1004D000710581059105C1F5E881F9810480F581F7
:1004E000E02D65E02DC0643071058105910511F1A5
:1004F000D4F0653071058105910531F5E881F98108
:100500000480F581E02D66E01BC0E881F98104805C
:10051000F581E02D64E014C0E881F9810480F58163
:10052000E02D61E00DC0E881F9810480F581E02DC6
:1005300063E006C0E881F9810480F581E02D62E086
:10054000CE01DF91CF910994DF91CF91089543704F
:10055000552766277727DC01ED91FC910480F58112
:10056000E02D423051056105710571F043305105B0
:100570006105710559F0413051056105710511F0B2
:1005800065E005C066E003C06AE001C069E0099467
:10059000CF93DF93EC01CB01BA0123E030E040E0E0
:1005A00050E00E940914613071058105910581F0C8
:1005B000623071058105910591F0672B682B692BDD
:1005C000C1F4E881F9810480F581E02D64E00DC07B
:1005D000E881F9810480F581E02D61E006C0E881C1
:1005E000F9810480F581E02D62E0CE01DF91CF91A9
:1005F0000994DF91CF910895437055276627772797
:10060000DC01ED91FC910480F581E02D4230510533
:100610006105710571F0433051056105710559F0AF
:10062000413051056105710511F062E005C063E0DC
:1006300003C061E001C060E00994CF93DF93EC0157
:10064000E881F9810480F581E02D8A81811102C061
:1006500060E001C062E0CE010995E881F981048083
:10066000F581E02D8A81811102C061E001C063E063
:10067000CE0109958CA59DA58230910538F0880F93
:10068000991F880F991F05970197F1F7E881F98164
:100690000480F581E02D8A81811102C060E001C0F3
:1006A00062E0CE01DF91CF910994CF93DF93EC010B
:1006B00020E030E0A9016C897D898E899F890E94A4
:1006C000821318161CF4E8A9F9A902C0EAA9FBA92B
:1006D000DF91CF910994CF92DF92EF92FF920F9327
:1006E0001F93CF93DF93FC012381243041F0283006
:1006F00031F0233031F0263021F012E003C014E055
:1007000001C013E0EC012896E12CF12CC62ED12C6F
:1007100001E0C6010E2C02C0959587950A94E2F778
:10072000688180FD6027FE01349780810E94C101AD
:10073000FFEFEF1AFF0A2196E11658F3DF91CF91F0
:100740001F910F91FF90EF90DF90CF9008950F933E
:100750001F93DC011396EC910E2F10E00930110568
:10076000C0F5F801E55CFF4F0C942814DC01ED9115
:10077000FC910084F185E02D29C0DC01ED91FC9114
:100780000284F385E02D22C0DC01ED91FC9104840C
:10079000F585E02D1BC0DC01ED91FC910684F78509
:1007A000E02D14C0DC01ED91FC910088F189E02D71
:1007B0000DC0DC01ED91FC910288F389E02D06C0AB
:1007C000DC01ED91FC910488F589E02D1F910F91DA
:1007D00009941F910F910895CF93DF93FC0123811A
:1007E000222329F1EC0184810E941E098D810E943F
:1007F0001E098B81843011F0883029F48E810E948B
:100800001E098F8105C0833011F0863019F48E8166
:100810000E941E098FA58F3F51F00E941E096EA5F0
:1008200081E068278FA5DF91CF910C94C101DF9102
:10083000CF910895CF93DF93FC0123812223A1F070
:10084000EC010190F081E02D0480F581E02D60E065
:1008500009958FA58F3F41F00E941E096EA58FA5B7
:10086000DF91CF910C94C101DF91CF9108950F9347
:100870001F93CF93DF938C01EB01FC018081918169
:100880000097B1F0688179816115710579F0428135
:1008900053812C813D814217530740F00E9442163C
:1008A0008C819D81F8019583848313C00E94C314B9
:1008B00088819981F801918380838A819B819383C8
:1008C00082838C819D8195838483198218821B8207
:1008D0001A821D821C82DF91CF911F910F91089582
:1008E0000F931F93CF93DF93EC0188819981009739
:1008F00029F02A813B812617370788F48B016F5F27
:100900007F4F0E945B15009761F0998388831B835A
:100910000A832C813D81232B11F4FC01108281E09C
:1009200001C080E0DF91CF911F910F910895EF9268
:10093000FF920F931F93CF93DF93EC017B018A010A
:10094000BA010E9470042881398181110DC02115DE
:10095000310519F0C9010E94C314198218821D8241
:100960001C821B821A8206C01D830C83B701C90139
:100970000E944216CE01DF91CF911F910F91FF90FF
:10098000EF900895FC011182108213821282158269
:1009900014826115710551F0FB0101900020E9F707
:1009A0003197AF01461B570B0C9497040895BF92E3
:1009B000CF92DF92EF92FF920F931F93CF93DF932B
:1009C0007C016B01EA0189012417350720F48D2F82
:1009D000E901042F182F60E471E0C7010E94C204EE
:1009E000D60114968D919C911597C817D907C8F513
:1009F0008017910708F48C01D601ED91FC911197B5
:100A0000E00FF11FB08010824D915C91BA016C0F24
:100A10007D1F6115710561F0FB0101900020E9F770
:100A20003197AF01461B570BC7010E94970413C0B3
:100A3000F70180819181009711F00E94C314D701C2
:100A400011961C921E9215961C921E921497139644
:100A50001C921E921297D601ED91FC91E00FF11FAE
:100A6000B082C701DF91CF911F910F91FF90EF905E
:100A7000DF90CF90BF9008951F920F920FB60F9204
:100A800011242F933F934F935F936F937F938F9393
:100A90009F93AF93BF93EF93FF9388E891E00E94F9
:100AA0002D01FF91EF91BF91AF919F918F917F9118
:100AB0006F915F914F913F912F910F900FBE0F90CB
:100AC0001F9018951F920F920FB60F9211242F931B
:100AD0008F939F93EF93FF93E0919801F091990189
:100AE0008081E0919E01F0919F0182FD12C0908172
:100AF0008091A1018F5F8F732091A201821751F025
:100B0000E091A101F0E0E857FE4F958F8093A1019D
:100B100001C08081FF91EF919F918F912F910F9054
:100B20000FBE0F901F9018952FB7F8946091590140
:100B300070915A0180915B0190915C012FBF0895E3
:100B40001F920F920FB60F9211242F933F938F9302
:100B50009F93AF93BF938091590190915A01A091B7
:100B60005B01B0915C013091580123E0230F2D37D8
:100B700020F40196A11DB11D05C026E8230F0296A1
:100B8000A11DB11D209358018093590190935A01E2
:100B9000A0935B01B0935C018091840190918501E9
:100BA000A0918601B09187010196A11DB11D80938E
:100BB000840190938501A0938601B0938701BF9132
:100BC000AF919F918F913F912F910F900FBE0F90FA
:100BD0001F9018951F920F920FB60F921124CF926B
:100BE000DF92EF92FF920F931F932F933F934F93B8
:100BF0005F936F937F938F939F93AF93BF93EF9385
:100C0000FF932091860030918700C90130918100C7
:100C100020E4232720938100B59A20915D01309133
:100C20005E01D901B09B05C08F3F0FE7900708F424
:100C3000C1C02091810026FFADC020915F0130919D
:100C400060012115310509F44FC02130310509F04B
:100C500054C00091540110915501209156013091DA
:100C6000570140916E0150916F0160917001709138
:100C70007101480F591F6A1F7B1F401B510B620BEC
:100C8000730B40936E0150936F01609370017093EA
:100C90007101C0906101D0906201E0906301F09019
:100CA0006401409166015091670160916801709103
:100CB00069018C019D01041B150B260B370BC90123
:100CC000B8010E94FA109B01AC01C701B6010E9455
:100CD000DA120E9453136093500170935101809374
:100CE0005201909353014CC0809366019093670129
:100CF000A0936801B093690143C000915401109121
:100D00005501209156013091570140916E0150914B
:100D10006F016091700170917101480F591F6A1F36
:100D20007B1F401B510B620B730B40936E01509362
:100D30006F01609370017093710120915F01309198
:100D4000600127703327232BD9F40091660110919D
:100D500067012091680130916901409150015091E3
:100D6000510160915201709153016C017D01C01AD3
:100D7000D10AE20AF30AC416D506E606F706E8F435
:100D800080915F0190916001019690936001809342
:100D90005F0122C09C01205C334630938900209380
:100DA00088008093540190935501A0935601B0930D
:100DB000570112C0D90111963CCF80936A019093DC
:100DC0006B01A0936C01B0936D0110926F0083E2F0
:100DD00086BB81E080936501FF91EF91BF91AF9158
:100DE0009F918F917F916F915F914F913F912F9143
:100DF0001F910F91FF90EF90DF90CF900F900FBE5B
:100E00000F901F9018951F920F920FB60F921124FA
:100E10008F9310926F0083E286BB82E0809365011E
:100E20008F910F900FBE0F901F9018951F920F92E9
:100E30000FB60F9211248F939F9380915D01909133
:100E40005E01019690935E0180935D019F918F9169
:100E50000F900FBE0F901F9018952F923F924F92B8
:100E60005F926F927F928F929F92AF92BF92CF923A
:100E7000DF92EF92FF920F931F93CF93DF9300D0F7
:100E800000D0CDB7DEB71C01FC01C088D188E28854
:100E9000F38884859585A685B785C81AD90AEA0A94
:100EA000FB0A64897589868997899B01AC010E9438
:100EB0005B114B015C01F101648D758D868D978D01
:100EC0009B01AC010E946E129B01AC01C501B401F3
:100ED0000E94DA120E944C13C114D104E104F104FF
:100EE000A1F462307105810591050CF07CC0F1011F
:100EF00014A215A216A217A2148A158A168A178A96
:100F000014AA15AA16AA17AAFFC0F10104A915A9C7
:100F100026A937A91C141D041E041F0404F510166D
:100F20001106120613064CF46C157D058E059F05FF
:100F30005CF52281211157C027C00115110521053B
:100F4000310509F450C06C157D058E059F050CF028
:100F50004AC0F1018281882309F445C039C01016C6
:100F6000110612061306FCF40027112798010C192C
:100F70001D092E093F09601771078207930724F4A2
:100F8000F1012281222379F19B01AC018827992765
:100F9000DC01821B930BA40BB50BF10184AB95AB69
:100FA000A6ABB7AB20C00115110521053105D9F05D
:100FB0008824992454018C189D08AE08BF08681530
:100FC00079058A059B057CF4F101828181110BC0B2
:100FD00030952095109501951F4F2F4F3F4F04AB33
:100FE00015AB26AB37ABF10184A895A8A6A8B7A886
:100FF00081149104A104B10491F480AD91ADA2AD2E
:10100000B3AD84AF95AFA6AFB7AF81E01C141D049C
:101010001E041F040CF080E0F101828341C0F10145
:10102000C4ACD5ACE6ACF7ACA7019601C701B601DC
:101030000E946E122B013C01C501B4010E94FC10FC
:1010400020E030E040E850E40E945B1120E030E016
:1010500040E85FE30E946E129B01AC01C301B20144
:101060000E94DA129B01AC01C701B6010E946D1209
:101070007B018C01F101E05CFF4F60807180C280D8
:10108000D3809301A6010E948213181614F07301F5
:101090008601A701B801F10144AF55AF66AF77AF44
:1010A000FFEF8F1A9F0AAF0ABF0AF10184AA95AA1F
:1010B000A6AAB7AA24AD35AD46AD57ADCA01B90150
:1010C00029833A834B835C830E945313F10164A309
:1010D00075A386A397A329813A814B815C8160E047
:1010E00074E284E799E40E94DA12F101648B758B53
:1010F000868B978B2281211107C0DC01CB01B05870
:10110000848B958BA68BB78B0F900F900F900F90C1
:10111000DF91CF911F910F91FF90EF90DF90CF90D3
:10112000BF90AF909F908F907F906F905F904F9007
:101130003F902F9008954F925F926F927F928F927F
:101140009F92AF92BF92CF92DF92EF92FF92CF9396
:10115000DF93EC016A017B0120E030E0A901C701C7
:10116000B6010E94F51087FF04C0F7FAF094F7F873
:10117000F0948C8C9D8CAE8CBF8CA7019601C50120
:10118000B4010E94F510882309F449C06CA97DA917
:101190008EA99FA90E94FC102B013C01A70196017A
:1011A000C501B4010E94DA129B01AC01C301B20176
:1011B0000E945B110E944C136CAB7DAB8EAB9FAB5E
:1011C000A701960160E070E080E090E40E94DA12EE
:1011D0000E948D1326E53EE04DE25FE30E945B1125
:1011E00020E034E244E759E40E945B1168AF79AF34
:1011F0008AAF9BAFCC8EDD8EEE8EFF8ECE01DF915F
:10120000CF91FF90EF90DF90CF90BF90AF909F90E5
:101210008F907F906F905F904F900C942D07DF918F
:10122000CF91FF90EF90DF90CF90BF90AF909F90C5
:101230008F907F906F905F904F90089590E0FC01A9
:10124000E150FF4F2491FC01E551FF4F8491882329
:1012500099F090E0880F991FFC01EF51FF4FA59185
:10126000B491FC01E952FF4F859194918FB7F894A6
:10127000EC91E22BEC938FBF0895CF92DF92EF9227
:10128000FF928091730290917402A0917502B091C7
:101290007602892B8A2B8B2B11F480E06EC03FB72E
:1012A000F8948091840190918501A0918601B0917C
:1012B000870126B5A89B05C02F3F19F00196A11DF7
:1012C000B11D3FBFCC24D82EE92EFA2EC20ED11C60
:1012D000E11CF11C42E0CC0CDD1CEE1CFF1C4A950D
:1012E000D1F78091770290917802A0917902B09124
:1012F0007A02B701A601481B590B6A0B7B0B809140
:10130000730290917402A0917502B0917602481711
:1013100059076A077B0708F4C0CF209151028091DA
:101320005B0290915C02A0915D02B0915E0222236B
:1013300021F00196A11DB11D03C00197A109B109BA
:1013400080935B0290935C02A0935D02B0935E0277
:1013500040915B0250915C0260915D0270915E026F
:101360008FE492E00E94A703C0927702D0927802A5
:10137000E0927902F0927A0281E0FF90EF90DF90A4
:10138000CF900895009769F0FC0101900020E9F7E3
:101390003197AF01481B590BBC0188E891E00C94D0
:1013A000B70080E090E008950F931F930E9494058A
:1013B00060939001709391018093920190939301B7
:1013C000E0918801F09189010284F385E02D88E89D
:1013D00091E0099597FF1FC00E949405009190012C
:1013E000109191012091920130919301DC01CB0188
:1013F000801B910BA20BB30B00918C0110918D01FE
:1014000020918E0130918F0180179107A207B307B9
:10141000B8F28FEF9FEF1F910F9108958F929F92D7
:10142000AF92BF920F931F93CF93DF93CDB7DEB7E9
:10143000A1970FB6F894DEBF0FBECDBF19A2423000
:1014400008F44AE08E010F5D1F4F842E912CA12CD1
:10145000B12CA50194010E94E713E62FB901CA013E
:1014600001501109EA3014F4E05D01C0E95CD801D3
:10147000EC93232B242B252B61F7C8010E94C20972
:10148000A1960FB6F894DEBF0FBECDBFDF91CF910E
:101490001F910F91BF90AF909F908F900895CF9321
:1014A000DF93C9E4D2E02697888199810E94C31412
:1014B00082E0C532D807B9F78091490290914A027B
:1014C000DF91CF910C94C314CF93DF93CDB7DEB7E8
:1014D0002E970FB6F894DEBF0FBECDBF789484B5BB
:1014E000826084BD84B5816084BD85B5826085BD20
:1014F00085B5816085BD80916E00816080936E00AE
:10150000109281008091810082608093810080919F
:101510008100816080938100809180008160809350
:1015200080008091B10084608093B1008091B00010
:1015300081608093B00080917A00846080937A000B
:1015400080917A00826080937A0080917A00816035
:1015500080937A0080917A00806880937A0010925C
:10156000C100E0919801F091990182E08083E091BF
:101570009401F09195011082E0919601F09197010C
:1015800080E180831092A001E0919C01F0919D0187
:1015900086E08083E0919A01F0919B0180818061D7
:1015A0008083E0919A01F0919B0180818860808323
:1015B000E0919A01F0919B01808180688083E091A5
:1015C0009A01F0919B0180818F7D80838E010F5F56
:1015D0001F4F0E9494056093800170938101809356
:1015E000820190938301C0907C01D0907D01E090B6
:1015F0007E01F0907F01DC01CB018C199D09AE09C1
:10160000BF09883E9340A105B1050CF4D4C0C09039
:101610007801D0907901E0907A01F0907B0120E090
:1016200030E0A901C701B6010E94F510882309F432
:10163000C2C0A7019601C701B6010E94CD1388233D
:1016400019F082E391E01AC026013701E89477F897
:101650002FEF3FEF4FE75FE7C301B2010E94CD13C9
:1016600081110FC02FEF3FEF4FE75FE7C301B201DA
:101670000E94F51018162CF486E391E00E94C2092E
:1016800082C02FEF3FEF4FE75FE4C701B6010E9432
:10169000821318161CF48AE391E0F0CF2FEF3FEF8E
:1016A0004FE75FECC701B6010E94F51087FDF3CF4D
:1016B00020E030E0A901C701B6010E94F51087FFC4
:1016C0000FC0E0918801F09189010190F081E02D37
:1016D0006DE288E891E00995F7FAF094F7F8F09454
:1016E0002AE037ED43EA5BE3C701B6010E946E12C0
:1016F0002B013C010E9453136B017C010E94FA10E4
:101700009B01AC01C301B2010E946D122B013C018F
:101710004AE0C701B6010E940E0AE0918801F091EB
:1017200089010190F081E02D6EE288E891E0099551
:1017300020E030E040E251E4C301B2010E945B11BD
:101740006B017C010E9453132B01612C712C4AE028
:10175000C301B2010E940E0AC301B2010E94FA1035
:101760009B01AC01C701B6010E946D1220E030E080
:1017700040E251E40E945B110E94531380E090E02C
:101780004AE00E940E0A8EE391E00E94C209109284
:1017900078011092790110927A0110927B010E94D7
:1017A0003D090E94940560937C0170937D018093B4
:1017B0007E0190937F018091800190918101A091A1
:1017C0008201B09183014091740150917501609143
:1017D000760170917701841B950BA60BB70B843FA4
:1017E0009140A105B1050CF4A9C08AE899EAA6ECDC
:1017F000BFE48093610190936201A0936301B09371
:101800006401109265011092600110925F011092C4
:101810006E0110926F01109270011092710110927E
:101820005E0110925D011092800010928100109272
:10183000850010928400A0E4BCE9B0938900A093D5
:101840008800B1E4B093810023E226BB20936F00AF
:1018500080916501813081F060F0823009F062C0D2
:1018600081E491E00E94C2098EE391E00E94C209E6
:1018700057C00E943D09ECCF60916E0170916F01DD
:101880008091700190917101C0906A01D0906B01BC
:10189000E0906C01F0906D0180906601909067017E
:1018A000A0906801B09069010E94FA102B013C01E0
:1018B000C701B601681979098A099B090E94FA10C3
:1018C0009B01AC01C301B2010E94DA126B017C01E1
:1018D0009B01AC010E945B112DE33AE047EB5FEB0B
:1018E0000E945B112B013C012CE53FE846E553E4E7
:1018F000C701B6010E945B119B01AC01C301B2019B
:101900000E946E1223E333E349E852E40E946D1211
:10191000609378017093790180937A0190937B01B1
:101920000E943D090E943D090E9494056093740144
:1019300070937501809376019093770188E891E028
:101940000E941701181619060CF0D7C160E471E067
:10195000C8010E94C2040E94D40997FD1EC08A30AB
:101960009105D9F08F831886ED80FE808FEFE81AFD
:10197000F80AB701C8010E947004882361F3298125
:101980003A818D819E81BE01695F7F4F820F931FD7
:101990000E944216FE82ED82DECFB80189E492E019
:1019A0000E94370489819A810E94C31418861F827D
:1019B0001A8619861C861B866091490270914A021C
:1019C0006115710541F040914D0250914E02CE01DA
:1019D00007960E94970440E050E0E12CF12C8B84A4
:1019E0009C844815590598F46F8078846AE370E008
:1019F000C301840F951F4D875E870E942E164D856B
:101A00005E85009721F06C01C618D70803C0CC246E
:101A1000CA94DC2CCA0101968C159D0524F596010B
:101A2000BE01695F7F4FC8010E94D704A6E0AE9D4A
:101A3000C001AF9D900D11248B5D9D4F80179107C4
:101A400019F0B8010E94370489819A810E94C31459
:101A5000BFEFEB1AFB0A26E0E216F10434F5A6010B
:101A60004F5F5F4FBCCFD7FEBACF86E0E816F104D8
:101A7000E4F49401BE01695F7F4FC8010E94D7045E
:101A8000A6E0AE9DC001AF9D900D11248B5D9D4FD2
:101A90008017910719F0B8010E94370489819A8153
:101AA0000E94C314BFEFEB1AFB0AF0927301E0929D
:101AB00072018F8198850E94C314809129029091B0
:101AC0002A02892B09F419C16BE471E08091250287
:101AD000909126020E943916892B09F00EC180913F
:101AE000310290913202009781F00E94730F6B01D6
:101AF0007C0120E030E0A9010E94F51087FF08C0BA
:101B0000F7FAF094F7F8F09403C0C12CD12C7601C9
:101B1000A701960160916702709168028091690245
:101B200090916A020E94F510882309F453C0C09274
:101B30006702D0926802E0926902F0926A02A701FD
:101B4000960160E074E284E799E40E94DA126093FF
:101B50008F027093900280939102909392028091F1
:101B6000830290918402A0918502B091860218169A
:101B700019061A061B0674F56091630270916402DF
:101B800080916502909166029B01AC010E945B11FD
:101B90006B017C0160916B0270916C0280916D020F
:101BA00090916E029B01AC010E946E129B01AC01F0
:101BB000C701B6010E94DA120E944C13609383029F
:101BC0007093840280938502909386028FE492E062
:101BD0000E942D078091370290913802009789F07A
:101BE0000E94730F6B017C0120E030E0A9010E948C
:101BF000F510882331F0B701A6018FE492E00E942E
:101C00009B0880912B0290912C02009729F00E9452
:101C1000730F3B014C0104C0612C712C812C912C61
:101C200020916302309164024091650250916602F6
:101C3000B301C4010E94F510882309F45EC0C0906E
:101C40006702D0906802E0906902F0906A02160183
:101C5000270157FA509457F85094A2019101B3010B
:101C6000C4010E94F51087FD0BC0A7019601B301C6
:101C7000C4010E94821318162CF06301740102C083
:101C80007201610120E030E0A901C701B6010E94A4
:101C9000F510811109C01092730210927402109213
:101CA00075021092760221C0A701960160E074E2ED
:101CB00084E799E40E94DA129F770E94531360939D
:101CC0007302709374028093750290937602992444
:101CD000939420E030E0A901C701B6010E9482136D
:101CE00018160CF0912C90925102C0926302D0927F
:101CF0006402E0926502F09266020E943D090E9431
:101D0000B70167CCCF93DF9310928B0110928A01B9
:101D100088EE93E0A0E0B0E080938C0190938D0179
:101D2000A0938E01B0938F018AE091E09093890196
:101D30008093880185EC90E09093950180939401C5
:101D400084EC90E0909397018093960180EC90E072
:101D5000909399018093980181EC90E090939B017E
:101D600080939A0182EC90E090939D0180939C0176
:101D700086EC90E090939F0180939E011092A101C8
:101D80001092A2011092A3011092A4018CE191E0A3
:101D90009093500280934F0281E080935202109200
:101DA0005B0210925C0210925D0210925E02109231
:101DB0005F02109260021092610210926202109211
:101DC000630210926402109265021092660280E033
:101DD00090E0A0E8BFE38093670290936802A0932D
:101DE0006902B0936A0210926B0210926C02109218
:101DF0006D0210926E0280936F0290937002A09316
:101E00007102B093720210927302109274021092D7
:101E100075021092760221E030E030937C0220932C
:101E20007B022FEF20937E021092770210927802AD
:101E30001092790210927A022BE0209353022CE048
:101E40002093540224E02093550225E0209356026B
:101E500010928302109284021092850210928602E0
:101E600010928702109288021092890210928A02C0
:101E700010928B0210928C0210928D0210928E02A0
:101E800080938F0290939002A0939102B09392025C
:101E90001092510210925702109258021092590259
:101EA00010925A028FE492E00E94EC0340E050E06E
:101EB00060E87FE38FE492E00E949B0860E471E0B9
:101EC00089E492E00E94C204C5E2D2E060E471E0DD
:101ED000CE010E94C204269682E0C934D807B1F729
:101EE000DF91CF910895662777270C94770FA0E0B4
:101EF000B0E0EDE7FFE00C942B12EC017B016115E3
:101F0000710519F0DB018D939C938E010F5F1F4FBC
:101F10007880872D90E00E94D410892B11F0E80181
:101F2000F4CFBDE27B1205C00F5F1F4F7980C1E087
:101F300008C0EBE27E1204C08E010E5F1F4F798055
:101F4000C0E06801F1E0CF1AD10843E050E060E959
:101F500070E0C6010E94DD10892BF1F4680122E0D7
:101F6000C20ED11C45E050E06BE870E0C6010E9453
:101F7000DD10892B21F4680187E0C80ED11CE11423
:101F8000F10419F0D701CD92DC92C111FFC060E0DD
:101F900070E080E89FE703C143E050E068E870E04C
:101FA000C6010E94DD10892B51F4E114F10409F4FB
:101FB000F2C00E5F1F4FF70111830083ECC0680170
:101FC00060E070E0CB0100E010E0F601D0EDD70D4D
:101FD000DA3058F52C2F2260622E2C2F2870C2FF89
:101FE00005C0211128C00F5F1F4F25C0222311F00B
:101FF00001501109A5E0B0E09B01AC010E941C1248
:102000004B015C01880C991CAA1CBB1CC501B401C6
:102010006D0F711D811D911D6839A9E97A078A0725
:10202000A9E19A0740F0C66005C0DE3F51F4C3FD48
:1020300044C0C8606C2EBFEFCB1ADB0A7080C62D7F
:10204000C4CF2D2F2F7D2531C1F540814D3211F4A4
:10205000C06106C04B3221F0319621E030E006C06D
:102060003296D60111964C9122E030E0A0EDA40FFB
:10207000AA3018F0E21BF30B20C040E050E04038DB
:10208000BCE05B075CF49A01220F331F220F331F61
:10209000420F531F440F551F4A0F511D3196DF0148
:1020A00011972C91A0EDA20FAA3048F3C4FF03C0F2
:1020B000519541955109040F151FC1FF07C0E11447
:1020C000F10421F03197D701ED93FC930E94FA10AF
:1020D000C370C33019F06B017C0106C06B017C0139
:1020E000F7FAF094F7F8F09420E030E0A901C70186
:1020F000B6010E94F510882309F445C017FF06C0F9
:10210000119501951109C7EAD0E002C0CFEBD0E0EC
:102110005E01B8E1AB1AB1084601BE2DAF2D90E2C9
:10212000E92EF12C0E151F0584F0FE012591359145
:1021300045915491B4018B2F9A2F0E945B114B0152
:10214000B82FA92F0E191F09EDCF2497F594E79406
:10215000CA15DB0539F76401EB2EFA2E8E2D880F98
:102160008F2D881F8F3F49F020E030E0A901C70183
:10217000B6010E94F510811106C082E290E09093B2
:10218000940280939302C701B60109C060E070E039
:1021900080E89FEF04C060E070E080EC9FE7CDB77F
:1021A000DEB7EEE00C94471291110C94C811803206
:1021B00019F089508550C8F70895FB01DC014150A2
:1021C000504088F08D9181341CF08B350CF4805E8A
:1021D000659161341CF06B350CF4605E861B6111F7
:1021E00071F3990B0895881BFCCF0E94371108F4F6
:1021F00081E00895E89409C097FB3EF4909580959E
:10220000709561957F4F8F4F9F4F9923A9F0F92FBC
:1022100096E9BB279395F695879577956795B7953A
:10222000F111F8CFFAF4BB0F11F460FF1BC06F5F20
:102230007F4F8F4F9F4F16C0882311F096E911C032
:10224000772321F09EE8872F762F05C0662371F053
:1022500096E8862F70E060E02AF09A95660F771F67
:10226000881FDAF7880F9695879597F90895990F43
:102270000008550FAA0BE0E8FEEF16161706E80750
:10228000F907C0F012161306E407F50798F0621B71
:10229000730B840B950B39F40A2661F0232B242B46
:1022A000252B21F408950A2609F4A140A6958FEF65
:1022B000811D811D08950E946E110C94E2110E94EF
:1022C000D41138F00E94DB1120F0952311F00C940A
:1022D000CB110C94D11111240C9416120E94F311FD
:1022E00070F3959FC1F3950F50E0551F629FF00169
:1022F000729FBB27F00DB11D639FAA27F00DB11D82
:10230000AA1F649F6627B00DA11D661F829F22270A
:10231000B00DA11D621F739FB00DA11D621F839F91
:10232000A00D611D221F749F3327A00D611D231F67
:10233000849F600D211D822F762F6A2F11249F57B5
:1023400050409AF0F1F088234AF0EE0FFF1FBB1FB8
:10235000661F771F881F91505040A9F79E3F510577
:1023600080F00C94CB110C9416125F3FE4F3983E6E
:10237000D4F3869577956795B795F795E7959F5F21
:10238000C1F7FE2B880F911D9695879597F90895B3
:1023900099278827089597F99F6780E870E060E0A3
:1023A00008959FEF80EC089500240A9416161706EE
:1023B00018060906089500240A9412161306140636
:1023C00005060895092E0394000C11F4882352F099
:1023D000BB0F40F4BF2B11F460FF04C06F5F7F4F51
:1023E0008F4F9F4F089557FD9058440F551F59F038
:1023F0005F3F71F04795880F97FB991F61F09F3FF2
:1024000079F087950895121613061406551FF2CF1A
:102410004695F1DF08C0161617061806991FF1CF6A
:1024200086957105610508940895E894BB27662791
:102430007727CB0197F908950E945E12A59F900D12
:10244000B49F900DA49F800D911D112408952F928B
:102450003F924F925F926F927F928F929F92AF9234
:10246000BF92CF92DF92EF92FF920F931F93CF9381
:10247000DF93CDB7DEB7CA1BDB0B0FB6F894DEBF18
:102480000FBECDBF09942A88398848885F846E843E
:102490007D848C849B84AA84B984C884DF80EE8088
:1024A000FD800C811B81AA81B981CE0FD11D0FB691
:1024B000F894DEBF0FBECDBFED010895A29FB0011D
:1024C000B39FC001A39F700D811D1124911DB29F68
:1024D000700D811D1124911D08955058BB27AA2706
:1024E0000E9485120C94E2110E94D41138F00E94CF
:1024F000DB1120F039F49F3F19F426F40C94D1112C
:102500000EF4E095E7FB0C94CB11E92F0E94F31138
:1025100058F3BA17620773078407950720F079F418
:10252000A6F50C9415120EF4E0950B2EBA2FA02DE3
:102530000B01B90190010C01CA01A0011124FF2770
:10254000591B99F0593F50F4503E68F11A16F0406B
:10255000A22F232F342F4427585FF3CF469537956A
:102560002795A795F0405395C9F77EF41F16BA0B2F
:10257000620B730B840BBAF09150A1F0FF0FBB1FDD
:10258000661F771F881FC2F70EC0BA0F621F731F26
:10259000841F48F4879577956795B795F7959E3F83
:1025A00008F0B0CF9395880F08F09927EE0F979514
:1025B000879508950E94EE120C94E2110E94DB119F
:1025C00058F00E94D41140F029F45F3F29F00C9498
:1025D000CB1151110C9416120C94D1110E94F311CD
:1025E00068F39923B1F3552391F3951B550BBB2742
:1025F000AA2762177307840738F09F5F5F4F220F87
:10260000331F441FAA1FA9F335D00E2E3AF0E0E87D
:1026100032D091505040E695001CCAF72BD0FE2FC7
:1026200029D0660F771F881FBB1F2617370748075B
:10263000AB07B0E809F0BB0B802DBF01FF27935813
:102640005F4F3AF09E3F510578F00C94CB110C94FB
:1026500016125F3FE4F3983ED4F38695779567951D
:10266000B795F7959F5FC9F7880F911D9695879548
:1026700097F90895E1E0660F771F881FBB1F621767
:1026800073078407BA0720F0621B730B840BBA0B25
:10269000EE1F88F7E09508950E9453136894B111D6
:1026A0000C94161208950E94FB1188F09F5798F021
:1026B000B92F9927B751B0F0E1F0660F771F881F47
:1026C000991F1AF0BA95C9F714C0B13091F00E9461
:1026D0001512B1E008950C941512672F782F8827F2
:1026E000B85F39F0B93FCCF3869577956795B39588
:1026F000D9F73EF490958095709561957F4F8F4FF7
:102700009F4F08950E94371108F48FEF089519F430
:1027100016F40C94D1110C94D2130E94FB11B8F34F
:102720009923C9F3B6F39F57550B87FF0E94E01317
:102730000024A0E640EA900180585695979528F429
:10274000805C660F771F881F20F026173707480721
:1027500030F4621B730B840B202931294A2BA69578
:1027600017940794202531254A2758F7660F771FBD
:10277000881F20F026173707480730F4620B730BC9
:10278000840B200D311D411DA09581F7B901842FC7
:102790009158880F9695879508950E943711880B58
:1027A000990B08959F3F31F0915020F487957795CC
:1027B0006795B795880F911D9695879597F9089518
:1027C00091505040660F771F881FD2F70895A1E2FD
:1027D0001A2EAA1BBB1BFD010DC0AA1FBB1FEE1F9B
:1027E000FF1FA217B307E407F50720F0A21BB30BE6
:1027F000E40BF50B661F771F881F991F1A9469F762
:1028000060957095809590959B01AC01BD01CF01BD
:102810000895052E97FB1EF400940E94201457FD86
:1028200007D00E94E71307FC03D04EF40C94201449
:1028300050954095309521953F4F4F4F5F4F0895EC
:1028400090958095709561957F4F8F4F9F4F08951C
:10285000EE0FFF1F0590F491E02D0994CF93DF93C5
:102860008230910510F482E090E0E0919702F091BF
:10287000980220E030E0C0E0D0E0309711F14081D4
:10288000518148175907C0F04817590761F48281F0
:102890009381209719F09B838A832BC09093980291
:1028A0008093970226C02115310519F0421753076E
:1028B00018F49A01BE01DF01EF010280F381E02DDF
:1028C000DCCF2115310509F1281B390B24303105E6
:1028D00090F412968D919C9113976115710521F0DA
:1028E000FB019383828304C09093980280939702A4
:1028F000FD01329644C0FD01E20FF31F81939193D5
:10290000225031092D933C933AC020919502309189
:102910009602232B41F42091020130910301309360
:10292000960220939502209100013091010121151A
:10293000310541F42DB73EB7409104015091050196
:10294000241B350BE0919502F0919602E217F307F4
:10295000A0F42E1B3F0B2817390778F0AC014E5F0F
:102960005F4F2417350748F04E0F5F1F50939602B4
:10297000409395028193919302C0E0E0F0E0CF0193
:10298000DF91CF9108950F931F93CF93DF9300971B
:1029900009F48CC0FC0132971382128200919702D5
:1029A000109198020115110581F420813181820F67
:1029B000931F20919502309196022817390779F5D7
:1029C000F0939602E093950271C0D80140E050E088
:1029D000AE17BF0750F412962D913C911397AD019D
:1029E0002115310509F1D901F3CF9D01DA013383B6
:1029F000228360817181860F971F8217930769F484
:102A0000EC0128813981260F371F2E5F3F4F31831C
:102A100020838A819B8193838283452B29F4F093C1
:102A20009802E093970242C01396FC93EE9312979C
:102A3000ED01499159919E01240F351FE217F307CB
:102A400071F480819181840F951F029611969C9359
:102A50008E938281938113969C938E931297E0E0DC
:102A6000F0E0D80112968D919C911397009719F080
:102A7000F8018C01F6CF8D919C9198012E5F3F4F0C
:102A8000820F931F209195023091960228173907E3
:102A900069F4309729F4109298021092970202C0BC
:102AA000138212821093960200939502DF91CF91C8
:102AB0001F910F910895A0E0B0E0E1E6F5E10C94DC
:102AC0002B12EC01009721F4CB010E942E14B8C008
:102AD000FC01E60FF71F9C0122503109E217F307B2
:102AE00008F4ACC0D9010D911C9111970617170776
:102AF000B0F00530110508F49FC0C801049786178F
:102B0000970708F499C002501109061B170B01938F
:102B100011936D937C93CF010E94C3148DC05B0110
:102B2000A01AB10A4C01800E911EA0919702B0919B
:102B3000980240E050E0E12CF12C109709F44AC0D3
:102B4000A815B905D1F56D907C901197630182E0CD
:102B5000C80ED11CCA14DB0480F1A3014A195B0919
:102B60006A0182E0C80ED11C1296BC90129713968F
:102B7000AC91B5E0CB16D10440F0B282A38351836F
:102B80004083D9016D937C930AC00E5F1F4FC30130
:102B9000800F911FF90191838083EB2DFA2FE114AF
:102BA000F10431F0D7011396FC93EE93129744C0D1
:102BB000F0939802E09397023FC08D919C911197FA
:102BC0004817590708F4AC017D0112960D90BC918D
:102BD000A02DB3CF8091950290919602881599050A
:102BE000E1F446175707C8F4809100019091010164
:102BF000009741F48DB79EB74091040150910501B3
:102C0000841B950BE817F907C8F4F0939602E0933C
:102C10009502F901718360830FC0CB010E942E14CD
:102C20007C01009759F0A801BE010E942516CE0133
:102C30000E94C314C70104C0CE0102C080E090E02E
:102C4000CDB7DEB7EEE00C944712FB01DC0102C009
:102C500001900D9241505040D8F70895FC018191A8
:102C6000861721F08823D9F7992708953197CF0146
:102C70000895FB01DC018D91019080190110D9F3B9
:102C8000990B0895FB01DC0101900D920020E1F702
:102C9000089510E0CBE8D0E004C0FE010E942814A3
:0C2CA0002196CC38D107C9F7F894FFCF7B
:102CAC00000099028000000000004E01B700E60011
:102CBC0095011701F5000901000000001A04EC034E
:102CCC006B03A70355031D03FC02C802A7025102A4
:102CDC000D026E616E00696E66006F7666000D0AFD
:102CEC00006E6F2073656E736F7200726F740000EC
:00000001FF
